:020000040000FA
:2000000000000420D52E0000FD2E0000FF2E0000012F0000032F0000052F000000000000CB
:20002000000000000000000000000000072F0000092F0000000000000B2F00000D2F0000DC
:20004000654B000049430000E9A700000F2F00000F2F00000F2F0000854800000F2F00000F
:200060003D7900000F2F00000F2F0000754C00000F2F0000754B00000F2F00000F2F000013
:20008000254D00000F2F00000F2F00000F2F00000F2F00000F2F00000F2F00000F2F00003C
:2000A0000F2F00000F2F00000F2F00000F2F00000F2F00000F2F00000000000000000000CC
:2000C0000F2F00000F2F00000F2F00000F2F00000F2F00000F2F00000F2F00000F2F000030
:2000E0000F2F00000F2F00000F2F000000000000000000000F2F0000000000000F2F0000CA
:200100000000000000000000000000000000000000000000000000000000000000000000DF
:200120000000000000000000000000000000000000000000000000000000000000000000BF
:2001400000000000000000000000000000000000000000000000000000000000000000009F
:2001600000000000000000000000000000000000000000000000000000000000000000007F
:2001800000000000000000000000000000000000000000000000000000000000000000005F
:2001A00000000000000000000000000000000000000000000000000000000000000000003F
:2001C00000000000000000000000000000000000000000000000000000000000000000001F
:2001E0000000000000000000000000000000000000000000000000000000000000000000FF
:2002000010B5054C237833B9044B13B10448AFF300800123237010BD840300200000000095
:20022000E0D0000008B5034B1BB103490348AFF3008008BD0000000088030020E0D000005E
:20024000154B002B08BF134B9D46A3F5803A00218B460F461348144A121A0CF0C3FB0F4B79
:20026000002B00D098470E4B002B00D098470020002104000D000D48002802D00C48AFF3DA
:2002800000800CF001F92000290000F0FDF90CF0E7F800BF000008000000042000000000F3
:2002A000000000008403002074270020000000000000000000B585B00346002101AA44F2A7
:2002C0000100CDE90111039300F004F805B05DF804FB00BF72B6094B1B68DB0700D500BE97
:2002E000BFF34F8F0649074BCA6802F4E0621343CB60BFF34F8F00BFFDE700BFF0ED00E033
:2003000000ED00E00400FA0572B6024A1368013313607047A0030020034A1368013B136086
:2003200003B962B6704700BFA003002010B50446006830B1002104F0C1FF54F8040F0028FC
:20034000F8D110BD10B590F84C10094A013180F84C10044603468021203000F0BDFD054B87
:2003600022461978BDE81040002005F03FB800BF45030000652700202DE9F04103880446B4
:200380003BB1B3F5867F0AD182290DD00120BDE8F0814FF4867323800120BDE8F0810023F1
:2003A00003800320BDE8F08102F048FEBFF35F8F1649174B0E6800220A601F781A70FFB214
:2003C000BFF35F8F134D02F03DFE28680028E0D0DFF8448003E055F8040F0028D9D090F851
:2003E000463026FA03F3DA07F5D590F8453047FA03F3DB07EFD500F0B7FD0028EBD02B68D2
:2004000042461846022100F067FDE4E7B4030020C21D0020400100207904000010B4094AE9
:20042000094C13681943116021780346012202FA03F30B43DBB2237004485DF8044B05F0D5
:2004400003B800BFB4030020C21D00205401002010B5044690F8461090F8450002F0ACFD82
:2004600010B994F8440010BD01280ABF94F84400002080F0010010BD70B5044600F074FD26
:2004800000B970BD04F12006304600F06DFD05462046FFF7DDFF01280ED00028F1D1002DEA
:2004A000EFD1304600F046FD0D4B224628461978BDE8704004F09ABF002DE2D000253046F8
:2004C0002346084A84F84C507E2100F005FD064B284622461978BDE8704004F087BF00BFB2
:2004E000642700204503000066270020F8B504F0DDFE304B304C187004F0D8FE2F4B304F9E
:20050000187004F0D3FE2F4922682F4B08700025FF2139727B60FD60002A42D02B4E09E0D4
:2005200091F84600F9683A72834054F8042F0B43FB60B2B392F8463092F84510926C03F0BF
:200540001F0343EA41131F2BC6BF03F01F0331464FF0A04103F5E07342F08C0241F82350C6
:20056000236893F8461093F8450002F0E3FC226892F8463092F8450003F01F0343EA401083
:20058000012104F0D9F82168387A91F8452082424FF00103C4D0FF28C2D054F8042F002A4E
:2005A000C8D10B48002104F089FEBDE8F840044802F016BD6627002040010020642700200C
:2005C000A4030020652700201D040000000300505401002030B5174B83B000221A6003F0B6
:2005E0000BFF00BB002003F023FF134B134A93E80300FF250090ADF80410062400231048B6
:20060000ADF8005069468DF802408DF8043004F0C7FA58B901210A4804F016FB084804F033
:2006200007FB03B030BDFFF745FEDBE7FFF742FEF0E700BFB803002070CA000071060000C5
:2006400078CA0000014B1868704700BFB803002008B5064A13680133136002F0D7F800B992
:2006600008BDBDE8084002F0B1B800BFB8030020042800D07047FFF7EBBF00BF014B1868F5
:20068000C0097047B803002038B5664C04F022FDFFF7A0FF07F062F904F032FE6248002177
:2006A00004F00CFE00F0DEFB0BF09CFE01F0DAFF08F088FD04F016FD04F0E4FE03F030FA9D
:2006C00003F040FA2368022B24DC584A584B1168526819605A605748002104F0EFFD4FF0AB
:2006E000FF300AF0BDFA2368022B054600F3818004F014FD5048FFF719FE0BF09DFE04F0EF
:2007000019FE04460BF0A0FE14F0FF0FF7D104F00BFDF4E7494A4A494A4804F021FD4A48D2
:2007200004F0A2FE2368022BCFDD444A4449454804F016FD454B4648196804F011FD2368E6
:20074000022BC2DD3D4A3E493E4804F009FD414B4148196804F004FD2368022BB5DD374AE9
:200760003749384804F0FCFC3C4B3D48196804F0F7FC2368022BA8DD304A3149314804F07B
:20078000EFFC38484AF6CD3104F0EAFC2368022B9BDD2A4A2A492B4804F0E2FC32481A21C5
:2007A00004F0DEFC2368022B8FDD244A2449254804F0D6FC2D4B2E48198804F0D1FC23685E
:2007C000022B82DD1D4A1E491E4804F0C9FC294804F0C6FC2368022B7FF777AF134802F0D8
:2007E0003BFE2368022B7FF770AF0A2004F03AFE6BE7124A1249134804F0B2FC1E4804F0BD
:20080000AFFC2368022B7FF773AF05B10235284602F012FE2368022B7FF76AAF0A2004F01B
:2008200021FE65E7B801002098010020FC1D002044210020B80200206CD0000080CA00009D
:2008400088CA000090CA0000A0CA0000E4CD0000D0CA000064CE0000E0CA000088CB000008
:20086000ECCA0000F8CA000014CB0000B41D002034CB000044CB00005CCB000070B590F84E
:200880002D50012D04460FD91F2504F065FE0246B0FBF5F1234601FB152104F10C00054A1C
:2008A000BDE8704000F018BBE91C01258D40013DEBE700BF450900002DE9F04714460D4611
:2008C0008A6894F82C900646606BD2E9007802F08BFD686804F012FEA968164802F076FE71
:2008E0001548294602F072FE606B02F02FFD60B10023A3852046FFF7C1FF4B4632464146D9
:200900003846BDE8F04702F027BE04F10C0000F011FB2146094802F067FD2146084802F0F2
:2009200055FE4B46324641463846BDE8F04702F013BE00BF640100207C010020240400208E
:200940007001002008B32DE9F047044682B0406B02F0FCFC0546A8B1406804F0E5FD63491F
:200960000D2004F09BFB0121082004F089FB00F07DF900280ADAAB6823B1052022462946A9
:20098000FFF79AFF02B0BDE8F087704704F0CEFADFF85C8190F80290D8F8047004F0C6FAC1
:2009A000064604F0CDFA01463046B84704F08AFBD8F818600746B04770BB002F4AD1D8F82A
:2009C0001CA0D04740BBD8F8087004F0B9FAB84700285DD002281FD0AB68002BD2D00420E9
:2009E000CCE706F09FFF6FF028031E1A03E006F099FFC64202D5D0470028F8D0D047002858
:200A00005ED0D8F81030032101A89847032803D19DF806304B4524D0AA68002AB2D094F854
:200A20002D300133DBB2052B84F82D3094F82C3008D8127A9A4224D8224629460120FFF775
:200A40003BFF9FE70133DBB2002184F82C3084F82D10EEE7D8F8086004F072FAB0470028D7
:200A6000B8D1AB68002B8DD094F82C3000200133294684F82C3084F82D002246FFF71CFFAD
:200A800080E72046FFF7FAFE686804F031FD79E706F048FF6FF018073F1A03E006F042FF1B
:200AA000C74202D5D0470028F8D0B047002898D1D047002895D1D8F814309847002890D0A7
:200AC000A96800293FF45EAF94F82C300133DBB2002284F82C3084F82D200A7A9A42D0D828
:200AE000224629460220FFF7E7FE4BE7FC1D002004CD00002DE9F04106460E200F4604F0DC
:200B0000D9FA4B4B1A780546002A6FD0494C2178002940D04A1CD2B289B20720227004F0ED
:200B2000AFFA01210C2004F0ABFA434802F00EFC044620B918E002F07BFC0446A0B1294610
:200B4000201D02F0F7FB03462046002BF3D0606B02F064FC072821DD394630460123BDE8CF
:200B6000F041062202F0F8BC344802F013FD04460028F1D02946201D02F0D6FB002304F13E
:200B80003000C4E90C30A38502F0DCFB2A48214602F0DEFBDBE701210222BEE7284802F098
:200BA000F9FC054688B3274802F0F4FCA86040B304F07CFC686000B30620D5F8088004F018
:200BC00067FAC8E9006710F0FF000ABF082388F8080088F80830606B294602F0B9FB606BBE
:200BE00002F0B4FB85421ED0BDE8F08101221A7004F0B2FC0F4CC1B28AE7A968114802F09F
:200C0000E5FC0F48294602F0E1FC606B02F006FC0028A1D12146084802F0E6FB21460748C5
:200C200002F0D4FC98E72046BDE8F041FFF726BEC31D0020C41D0020240400207001002083
:200C40007C0100206401002008B5054802F090FC044802F08DFCBDE80840034802F088BCB5
:200C60007C010020640100207001002010B501210C2004F005FA024BBDE810405B68184757
:200C800070CC0000014B9B68184700BF70CC0000014B1B6A184700BF04CD0000014B5B6A9E
:200CA000184700BF04CD000010B50D4B82B01B6898470C4B04469B6A01A918209847012804
:200CC0000BD0002C0198B8BF15248028D4BFC4EB0000C4F1800002B010BD002002B010BD87
:200CE00070CC000004CD0000FFF704BF00B583B004F020F9032802D103B05DF804FBFFF73E
:200D0000C1FF0028F8DB0E2004F0D4F91F4902F011FBE8B10D2004F0CDF91C4902F00AFBE7
:200D20000028E9D102F0C0FBB8B1082004F0B0F90028E1D00223ADF8043004F0F7F8144BDD
:200D40008278DB688DF80620032101A89847D3E704F0B8F90028CFD0DCE702F0CBFB082036
:200D600004F096F918B90B4B9B689847C4E70223ADF8043004F0DAF8054B8278DB688DF866
:200D80000620032101A89847EDE700BFFC1D002004CD000064CE000030B50C4C83B0A56A33
:200DA00069461820A84738B901A90420A84728B1FFF74AFF236A984703B030BD0199E36AA4
:200DC00021F00201019104209847F1E704CD0000F0B5038883B0054633B14A2B18D1882920
:200DE0001BD0012003B0F0BD1B4802F0AFFA044630B1A168201D01F0EFFC2468002CF8D1BB
:200E0000164B01221A704A2301202B8003B0F0BD00230380032003B0F0BD0F48019202F026
:200E200095FA04460028EED0019A031D9A4205D02468231D002CE6D09A42F9D10648084E8F
:200E4000214602F0D1FAD4E90523376832600BB1E06998473760D6E704050020C51D0020F5
:200E6000B00B002010B5064B064800241C7002F069FA21460448BDE8104004F01FBA00BFFA
:200E8000C51D0020040500208801002070B50E4C049E25784661C0E90623044635B9A1600E
:200EA0000A482146BDE8704002F052BA084D094B2E682B60043001F08FFC2E60214603486C
:200EC000BDE8704002F044BAC51D002004050020B00B00208801002010B5044C82B024684B
:200EE0000094FFF7D3FF02B010BD00BFB00B002070B50C4B1B7804462BB921460A48BDE8E2
:200F0000704002F025BA094D094B2E682B60043001F06CFC2E6021460348BDE8704002F071
:200F200017BA00BFC51D002004050020B00B00208801002010B50A4B1B7804463BB9C0E9DE
:200F4000033321460748BDE8104002F04DBA043001F064FC21460348BDE8104002F044BA9B
:200F6000C51D00200405002038B50C4B1D7804466DB90B4802F0EAF938B1A04202D10BE04C
:200F8000844209D000680028FAD1012038BDBDE83840043001F034BC002038BDC51D0020F8
:200FA0000405002010B50446C0B209F0D7FB204610BD00BF70B570B10E46451E002404E0C5
:200FC000A64206D009F0CAFB013415F8010F0028F6D1204670BD0446FBE700BF2DE9F04F81
:200FE00087B0002B02900F460392009340F38E808046CDE904AB4FF0000C1046A8F10403D3
:20100000E6460193E0466246B9460146934642464FF000084046ACEB000659F8203051F847
:2010200026601546A6FB032312EB0B0600F1010053EB050743B22CBF012200229E459044E2
:20104000B3463A46E7DA019B43F8046F0CF1010C0193009B4FFA8CFE7345D7DC394646468A
:201060004F46009A4FF0FF3303EB42039A42019394463EDAD3B291465A1E3B1D4FF00108C7
:20108000049300984FFA88F398423BDDACEB030C0398A2EB080E0C46049953FA8EFE0CF1C2
:2010A000010C01EB8E0E00EB8C0C314607EB8303002653F8045B5CF8040D8B46A5FB000182
:2010C000041951EB0B052CBF012100219E450E442946EED1029809F1010340F829404FFA94
:2010E00083F9019B08F1010899455FFA88F8CC46C7DB029B009A03EBC20343F8041C07B06F
:20110000BDE8F08F0C4631460026E3E700263146A7E700BFF0B4046814F0010537D0002ABD
:201120003CDD02F1FF3C5FFA8CFC01EB8C0C06460439002500E0346851F8047F2B193B444A
:20114000A34218BF002538BF45F00105614546F8043BF0D100EB82018842A1F104030AD2EB
:201160000433002153F8044D41EA5401984219604FEAC471F6D345B102F18042013A50F843
:20118000223043F0004340F82230F0BC704700EB82018842A1F10403E2D3F6E700EB8201C9
:2011A0008842A1F1040338BF0025D9D3EDE700BF2DE9F047021F8AB014460B1F01F11C0631
:2011C00053F8045F44F8045F9E42F9D10023D1E90C65CDE903338C6B02931F469846CB6ADA
:2011E00005930DF1080CCB6B0993CDE90754069663460AAD00E01F6808EB4704BC4243F888
:20120000044B18BF4FF0000838BF48F001089D42F1D101AFB94600F11C0316464FF0000E20
:2012200056F8045F59F8044F2C447444A54218BF4FF0000E88BF4EF0010EB3423460EFD149
:20124000D1E90C468D6B0795CD6BCDE905460024CDE90854C6440CF11C093D4655F8048FF0
:2012600004EB4806B04518BF002488BF44F00104A9452E60F2D10EEB040815464FF0000ED5
:2012800055F8046F57F8044F34447444A64218BF4FF0000E88BF4EF0010EAB422C60EFD1E3
:2012A000D1E908948D6B0394CC6B8E6ACDF808900027CDE90854C644CDE906770496059711
:2012C000E046154601E058F8049F55F8046FF4194C44A64218BF002788BF47F00107AB4203
:2012E0002C60F0D1D1E909850395CD6B4C6B0195CD6A0894CDE90454019C8E6B07940C6AB4
:20130000CDF80880774406960994E14615464FF0000E01E059F8048F55F8046F06EB0E0435
:201320004444A64218BF4FF0000E88BF4EF0010EAB422C60EED1D1E90B464D6B0396049558
:201340008E6A0D6A029407EB0E0A0027CDE90677CDE908560597BE461546674601E057F838
:20136000044F55F8046F341BA4EB0E04A64218BF4FF0000E38BF4EF0010EAB422C60EED1E2
:20138000D1E90E764D6A01954D6B0C6B0294CDE90357019D0895CD6A0995AAEB0E08059697
:2013A000674615464FF0000E01E057F8044F55F8046F341BA4EB0E04A64218BF4FF0000E99
:2013C00038BF4EF0010EAB422C60EED1D1E90D470D6A05950D6B019503974D6A8F6ACE6BE1
:2013E0000496CDE906570026019D0995A8EB0E0E02940896B0466746154601E057F8044F7A
:2014000055F8046F341BA4EB0804A64218BF4FF0000838BF48F00108AB422C60EED1D1E9F2
:201420000E764D6A039600248E6A0297CDE90445CD6A496B0991CDE90665AEEB080815467A
:2014400001E05CF8047F55F8046FF11B091B8E420CBFA6464FF0000E2CBF74464EF0010428
:20146000AB422960EDD1B8EB040E28D400F12008BEF1000F0AD11E4C414654F8046951F8E2
:20148000045DAE4231D801D38842F6D1194F1546002155F8046F57F804CB741AA4EB0C049E
:2014A000A64218BF002138BF41F00101AB422C60EFD1AEEB010EDBE71EEB010E15D00E4F25
:2014C00014464FF0FF36002101E057F8046B54F8045F68183044854218BF002188BF41F0A4
:2014E00001019C422060F0D1E6E70AB0BDE8F087D4CB0000B8CB0000BCCB0000014B1860BB
:20150000704700BF08050020014B1868704700BF080500204B1E5BB2002B26DB30B45C1CBB
:2015200000EB84045AB203E0013B5AB2002A06DB54F8045D1146002DF6D0013359B289B186
:2015400001F18043013B50F823202AB10020520800F10100FBD182B2481E02EB401000B273
:2015600030BC7047084630BC704781B101F18043013B50F823202AB10020520800F10100E2
:20158000FBD182B2481E02EB401000B270470846704700BF002A18BF002102FB00F0084321
:2015A000704700BF2DE9F0439DF91C40002C44DD651EEDB2071F01EB85080E1FA2F1040C9C
:2015C000BE46002156F8049F5CF8042F4A440A44914518BF002188BF41F00101B0454EF80F
:2015E000042FEFD1B1B100211D1F0A4657F8040F55F8043FC31A9B1A984201F1010118BFC0
:20160000002248B238BF42F0010284423B60EDDCBDE8F0836AB202E00BD3511C09D011B25B
:20162000013A53F8215050F821108D4252B2F3D9EEE7002CECDD071FD5E7621E1506E7D499
:201640007F22ECE72DE9F0419DF918C0BCF1000F2FDD0CF1FF3C5FFA8CFC071F4FEA8C0E87
:201660000C1F01EB8C0C161FB846002154F8045F56F8042FAA1A521A954218BF002138BF41
:2016800041F00101A44548F8042FEFD189B11C1F7044002257F8041F54F8043F0B44134409
:2016A000994218BF002288BF42F00102B8423B60F0D1BDE8F08100BF2DE9F04F93F900A02E
:2016C000BAF1000FA5B040F315810AF1FF35EDB2A2F104099846AB001746029302EB8505D2
:2016E00004460E464B46002253F8041FAB4242EA0102F9D1002A00F0FD80324614A85346E1
:201700003146FFF76BFCD8F8AC3014A904A8984704AA98F9003014A82146FFF75FFCD8F84E
:20172000AC3014A90CA8984704AA114698F9003014A8FFF753FCD8F8AC3014A904A89847C2
:201740003A4698F9003014A83146FFF747FCD8F8AC3014A9304698473A4698F9003014A821
:201760003946FFF73BFC08F1040BD8F8AC3014A9384698475B463A4621462046CDF800A09C
:20178000FFF710FF5B463A4639463846CDF800A0FFF708FF5B463A4621463846CDF800A059
:2017A000FFF750FF3A4698F9003014A82146FFF715FCD8F8AC3014A9204698475B462246C2
:2017C00021463846CDF800A0FFF7ECFE3A462146CDF800A05B462046FFF7E4FE216811F02A
:2017E000010200F08A80029BCDF80C800BEB03024046A446A0460023144601E0DCF800106B
:2018000050F8042F03EB010E72448A4218BF002338BF43F0010384424CF8042BEED1444624
:2018200004EB8A029442DDF80C804FEA8A000BD200219C4652F8043D41EA53019442116002
:201840004FEAC371F6D363460438225842EAC37323502246214698F9003014A8FFF7BEFB23
:20186000D8F8AC3014A9384698475B460CAA39463846CDF800A0FFF7E5FE5B460CAA39463A
:201880003846CDF800A0FFF7DDFE0CA908463A465B46CDF800A0FFF7D5FE0CAA214698F994
:2018A000003014A8FFF79AFB2046D8F8AC3014A9984704AA5B462146CDF800A01046FFF79C
:2018C000C1FE043C4B4653F8042F44F8042FAB42F9D1029A331F16441A4652F8041F49F87E
:2018E000041F9642F9D104AA52F8041B43F8041F9E42F9D125B0BDE8F08F04EB8A039C42B1
:20190000A7D253F8041D42EA51029C421A604FEAC172F6D39DE700BF2DE9F0419AB092F977
:2019200000801546002604460A46CDE90366CDE90566CDE9076643460AA8099603260F4651
:201940000296FFF74BFB2E1DD5F8AC3020460AA9984733462146204602AACDF80080FFF79A
:2019600071FE3A4695F9003021460AA8FFF736FBD5F8AC300AA920469847CDF8008033461B
:2019800005F1840221462046FFF70CFE1AB0BDE8F08100BF2DE9F047AAB09046329E374695
:2019A000994617F9045B00958A46044602463B46414602A8FFF746FE02AA114696F9003034
:2019C0001AA8FFF70BFBD6F8AC301AA902A8984702AA96F9003021461AA8FFF7FFFAD6F802
:2019E000AC3020461AA9984702AA96F9003041461AA8FFF7F3FAD6F8AC3040461AA998479A
:201A00003B465246494602A80095FFF7CBFD3B465246494648460095FFF714FE3B46224665
:201A200041460AA80095FFF70DFE0AAA96F9003051461AA8FFF7D2FAD6F8AC3050461AA946
:201A400098473B46424621460AA80095FFF7AAFD4A4696F9003049461AA8FFF7BFFAD6F836
:201A6000AC3040461AA998473B46414640460AAA0095FFF7E7FD42463B46214612A80095F2
:201A8000FFF7E0FD12AA96F9003049461AA8FFF7A5FAD6F8AC3048461AA998473B4652461F
:201AA000494648460095FFF7CDFD02AA114696F900301AA8FFF792FAD6F8AC301AA912A887
:201AC000984712A908463B460AAA0095FFF7BAFD3B46224612A90AA80095FFF7B3FD02AA6A
:201AE00096F900300AA91AA8FFF778FAD6F8AC301AA90AA8984700953B460AA95246504655
:201B0000FFF7A0FD002D0BDD013DEDB204EB850512AB201F53F8042B40F8042FA842F9D132
:201B20002AB0BDE8F08700BF2DE9F04FA9B015461E46024604930C462846194618ABCDE90C
:201B400005230794FFF7E6FCC0EB86100FFA80F8B8F1000FB4BF08F11F034346D8F100028E
:201B600043F3471102F01F0208F01F0658BF564200294FEA63130ADD013BDAB209AB03EBCF
:201B80008202002008AB43F8040B9A42FBD1002E40F3AD80049B002B00F0BE8008A805EBD6
:201BA00083072A46019000EB8105C6F1200C002352F8040B00FA06F10B43974245F8043B36
:201BC00020FA0CF3F4D1B8F1000F7DDB049B019901EB8305CF432A1F2F4427F003070392E6
:201BE00005EB8302EF1B009228AA03F1FF3A083F5E0002EB830302EB8A0A4FF0010902935E
:201C0000BE46002ED8BF002027DD28AAC9F1010302EB830353F888CC02EB8903002253F84F
:201C2000887C1046134628A901EB830314B253F8803C57F824100344CB1A02F1010252B238
:201C400034BF4FF0010B4FF0000B994218BF5846B2424CF824301346E5DB019BA9EB0009CE
:201C6000B9FA89F99D424FEA59190AD9039A0023116843EA510342F8043972454FEAC1736D
:201C8000F6D1029B53F8802C5AF8803C43EAC2734AF8803C009BAB420AD9009A002352F809
:201CA000041D43EA5103954213604FEAC173F6D308F1FF380FFA88F8B8F1FF3FA1D128AB1D
:201CC00003EB890959F8884C049B002B0CDD581E059AC0B204EB8000231F043A53F8041FC8
:201CE00042F8041F8342F9D129B0BDE8F08F049B002B11DD08AA0420013BDBB2019201FB15
:201D00000022043A10FB03502B1F53F8041F42F8041F8342F9D156E7B8F1000FE4DB08ABFA
:201D2000019353E72DE9F04FABB01C1E079040F3FD809246621ED3B2081F00939D0001EB84
:201D400083010022034653F8046F994242EA0602F9D1002A00F0AA810AAB50F8042F43F84D
:201D6000042B8142F9D1AAF104030DF14808099342460AEB050053F8041F42F8041B83420D
:201D8000F9D10DF168091BAA4B462A44002143F8041B9A42FBD1012323AA1A93154422AB5F
:201DA000002243F8042B9D42FBD108EB84030AAA02EB8401D6436FEA08051A46009803933F
:201DC0001D44043A25F0030505920A1F5D1B0E44431C08920AAA02EB830226F0030608EB8C
:201DE00083038E1B019343B20691083D083E02920493DDE90102009B03E072D3190600F142
:201E00008A8052F8047D50F8041D8F4203F1FF33F3D90A9B13F001024FF0010C67D0129AE7
:201E200012F0010000F08580BCF1010F4FF0000C604600F091800DF1280BC64603E0DEF805
:201E400000205BF8043FD31A1B1A93420CF1010C18BF00204FFA8CF288BF40F001009442BF
:201E60004EF8043BEBDC039B43450AD9059A0023116843EA510342F80439AA424FEAC17381
:201E8000F6D1049B03E0C0F0BD80581C0AD02AAA02EB8302013B52F8201C52F8402C91422D
:201EA0005BB2F0D9002003460DF1680B0DF1880CDCF800105BF8047BCA1AD21B914200F195
:201EC000010018BF002341B238BF43F001038C424CF8042BECDC2246514622A8FFF71AF90B
:201EE00087E70A9B13F001024FF0FF3C97D1069B0AA98B4209D9089B196842EA510243F806
:201F00000429B3424FEAC172F6D1224651461AA8FFF700F96DE7079B181F002301335AB22C
:201F200059F8041B40F8041F9442F7DC2BB0BDE8F08F039B4345CED9059B1A6840EA5200C3
:201F400043F80409AB424FEAC270F6D12246514622A8FFF7DFF84CE7C3460DF1280E03E031
:201F6000DEF800305BF8042F9A1A121A9A420CF1010C18BF00204FFA8CF388BF40F00100D8
:201F80009C424EF8042BEBDC069B0AAA93420AD9089A0023116843EA510342F80439B242F0
:201FA0004FEAC173F6D1049B02E055D35F1C0AD02AAA02EB8302013B52F8401C52F8202C31
:201FC00091425BB2F1D9002003460DF1880B0DF1680CDCF800105BF8047BCA1AD21B914291
:201FE00000F1010018BF002341B238BF43F001038C424CF8042BECDC224651461AA8FFF714
:2020000089F8F6E64FF0000E099972460DF1880B51F8040FDBF80030104418182CBF4FF01E
:20202000010C4FF0000C1F1AA3EB00030EF1010EB3FA83F318BF01275B09BCF1000F4FFAE5
:202040008EFC08BF002702FB03F364454BF8040B47EA0302DCDC25E74FF0000E0999724679
:202060000DF1680B51F8040FDBF80030104418182CBF4FF0010C4FF0000C1F1AA3EB0003C0
:202080000EF1010EB3FA83F318BF01275B09BCF1000F4FFA8EFC08BF002702FB03F3644593
:2020A0004BF8040B47EA0302DCDC8CE7079B1D44043B43F8042FAB42FBD12BB0BDE8F08F05
:2020C00000487047B4CB00000B785B005AB2002ADBB20FDD013BDAB200EB8202031F00207C
:2020E00053F8041F9A4240EA0100F9D1B0FA80F04009704701207047F0B51C4699B0074612
:202100000D4608A8114693F900301646FEF766FFD4F8AC3008A9684698476A4694F90030A0
:20212000394608A8FEF75AFFD4F8AC30384608A99847324694F90030694608A8FEF74EFF96
:20214000D4F8AC3008A96846984794F900306A46294608A8FEF742FFD4F8AC30284608A910
:20216000984719B0F0BD00BF2DE9F0479AB01446229EB0461F4618F9045B009581468A46A3
:2021800002464346214602A8FFF75CFA02AA114696F900300AA8FEF721FFD6F8AC300AA92B
:2021A00002A8984702AA96F9003049460AA8FEF715FFD6F8AC3048460AA9984702AA96F9DC
:2021C000003021460AA8FEF709FFD6F8AC3020460AA9984743465246394638460095FFF76E
:2021E00031FA3A4696F9003039460AA8FEF7F6FED6F8AC300AA902A8984702A908464346F3
:202200004A460095FFF71EFA02A90846434622460095FFF717FA43464A462146204600958A
:20222000FFF710FA224696F9003051460AA8FEF7D5FED6F8AC3050460AA99847494643467C
:20224000204602AA0095FFF7FDF9224696F9003039460AA8FEF7C2FED6F8AC300AA9384603
:20226000984700954346524639463846FFF7EAF9002D0BDD013DEDB204EB850502AB221F9A
:2022800053F8041B42F8041FAA42F9D11AB0BDE8F08700BF2DE9F04F2DED028BC3B0CDE9F7
:2022A0000412DDF83C81BDF9384198F900600690002E40F32181701E5FFA80FC4FEA8C0590
:2022C0000A1F01EB8C0C19A952F8047F41F8047F9445F9D1049FB20007EB86010892043ABD
:2022E00007913A444F1929A952F8045F41F8045FBA42F9D1C0B20DF1C80A002B00F0F180B1
:2023000003EB80005246043B53F8041F42F8041B9842F9D112AF3A460023013359B2106AF0
:2023200042F8040B8E42F8DC0DF1880B5A460023013359B2106A42F8040B8E42F8DC2AA9E3
:202340001AA843465246FFF7D7FE023C2AA91AA843465246D8F8A450A84724B24346524631
:2023600059463846FFF7C8FE002C32DD099608EE10AA4646DDF814806211012158F82220DE
:20238000009604F01F0301FA03F3134213BF202100212025002507EB05090BEB010A5D440B
:2023A00078182B4651464A460390FFF7F3FA03980096A4B253460246013C29464846FFF7E7
:2023C000D3FEA3B224B2002BD6D1B04618EE10AA099E059B1C68CDF80080E34304F001044A
:2023E00007EB441503F001030BEB441407EB431221460BEB4313284608F1040908EE903A1F
:2024000008EE102AFFF7C6FA1AA94B460AA83A460096FFF717F9224698F900300AA9504642
:20242000FEF7DCFDD8F8AC300AA851469847049A98F900300AA95046FEF7D0FDD8F8AC30E4
:202440000AA8514698470AA9084633464A46FFF769FC079A98F900300AA95046FEF7BEFD94
:20246000D8F8AC300AA8514698472A4698F900300AA95046FEF7B2FDD8F8AC3051460AA875
:20248000984718EE901A18EE100A23462A46CDF80080FFF769FE43460AAA59463846FFF7C2
:2024A0002BFE002E18DD069B013EF6B203EB8606043B57F8042B43F8042F9E42F9D1089A57
:2024C000101F1644069A02445B46104653F8042B40F8042FB042F9D143B0BDEC028BBDE827
:2024E000F08F33AA02EB8000524642F8043B9042FBD1012332930DE7B2000892049A02EBB0
:20250000860207922BB10DF1C80A12AF0DF1880B15E701233293F6E72DE9F04FB3F902A037
:202520001AF11F0448BF0AF13E0444F34718B8F1000F4FEA641435DD013C5FFA84FE03F10C
:202540002007A1F1040C00EB8E0E051FBB46E146002055F8046F5BF8044F34440444A642B1
:2025600018BF002088BF40F00100AE4549F8044FEFD1B8B10021151F0A465CF8044F57F8A1
:20258000043F234413449C4201F1010118BF00224CB288BF42F00102A04545F8043FECDCC8
:2025A000BDE8F08FBAEB481F08DB0020B8F1000FF6DD03F12007A1F1040CDBE74FEA6A102B
:2025C0000AF01F0A51F82040012000FA0AFA1AEA040F08BF0020E9E7002914DD70B40024E0
:2025E00023464E1EF31A23F0030503F003035559DB0025FA03F3651C03556CB28C42234619
:20260000F0DB70BC70477047D31C48BF931DF0B443F38704002C4FEAA30309DD013BDCB28F
:2026200000EB8404031F002543F8045F9C42FBD1002A15DD00242346571EFB1A23F0030C43
:202640000E5D50F80C5003F00303DB00013406FA03F364B21D43944240F80C502346ECDB5C
:20266000F0BC7047704700BF10B5FDF7EBFF0B4B1A68D2E9003192680B44191A52B1D2E9E0
:20268000003423441B1A9268994228BF1946002AF5D14318024A136010BD00BF1005002084
:2026A0000C0500202DE9F843038805465BB3592B2CD187292FD0822920D12C4FDFF8B48062
:2026C0003C684FF00009CCB1002603E0A3682646A3B11C46204608F033F80028F6D0E0689C
:2026E0002246882102F082FE03464046002B2AD002F0AAFEA3682646002BEAD159232B8045
:202700000120BDE8F883194A1360F7E7002303800320BDE8F883154F3968002019B9EDE710
:2027200089680120D9B1CB689342F9D000B139608B68002BE2D0D868904207BF9B688B604C
:2027400019469B68F5E7E360A3686EB1B3603B68C4F808902BB1FFF787FF3C68B3E7396095
:20276000CCE7034A1360C9E73B60F1E7100500200C0500209801002010B50446104802F04B
:2027800063FE1049E3680A684BB142B194420FD0134601E09C420BD09B68002BFAD10A4BDD
:2027A000A2601B68E3600C60BDE81040FFF75CBF054B1B68E360BDE81040FFF755BF00BF0B
:2027C0009801002010050020B00B0020014802F03BBE00BF9801002010B5044607F09AFFE5
:2027E0002046BDE81040FFF7C7BF00BF10B5044607F098FF2046BDE81040FFF7BDBF00BF1A
:20280000C068B0FA80F04009704700BF024B1868003818BF012070471005002010B5124BAC
:2028200019688142044614D00B462BB19A68A24206D01346002BF9D10023C4E9023310BD1D
:20284000A2689A6049B1FFF70FFF0023C4E9023310BD82681A60002AF5D1044B00221A6065
:202860000023C4E9023310BD100500200C050020014B1888704700BF7803002000283ED0ED
:20288000037A022B30B410D00378022B15D00379B3B10024C37913F0030318BF012301B147
:2028A0000C6002B1136030BC7047C579447A037965B90CB9012BF2D0DBB100231C46EEE7B4
:2028C000447A14F0030418BF0124E3E7C4B1032D37D1032C2ED0022C24D143BB022D2DD042
:2028E0000123032D24D1A4F10204B4FA84F46409D5E7023C012C8CBF00240124CFE7704739
:202900004BB9022D08BF0123EAD1A4F10304B4FA84F46409C3E7032D01D0022D02D1234699
:202920001C46BCE7002BC8D1022DDAD1EDE701230024B4E7002BC0D10123D4E701231C461C
:20294000ADE7022DC7D1002BF1D1022C4FF00103DBD11C46A3E700BF30B500230B608B80E9
:20296000437D0D46D9075CBF01232B70037E012B83B0044623D901AA694604F11000FFF70F
:202980007DFF009B0BB10223EB70019B0BB102236B70E37D03F00303022B03D0032B14BF32
:2029A00000230823AB70637E03F00303022B03D0032B14BF002308232B7103B030BDC37D09
:2029C0009A0706D0437E9B0703D0C28B838B9A4202D000232375CEE701230375CBE700BFC4
:2029E00002280CBF012307230B441A78FF2A184603F1FF3303D18142F7D1012070470020AF
:202A0000704700BF30B583B06946FFF7A5FF9DF800309DF801509DF802409DF803109DF820
:202A200004209DF8050002332B4423440B441344184403B030BD00BF70B443788278057816
:202A4000C478DB00120102F0100203F008031343027905F0070564012B4304F020049201FA
:202A6000234302F0400213430B7043798579467AC479027A03F001036D0043EA861305F099
:202A80000205A0002B4300F00C001201034302F03002134370BC4B70704700BFF0B583B01D
:202AA0000E4607466946FFF757FF314607F11000FFF7C2FF9DF80030012B04BFBB7EB37034
:202AC0009DF801300CBF03220222022B08D1BB8BB354531CB98BDBB2090A0232F154D2B279
:202AE0009DF802304BB35D1E13443D44DBB214460132D2B215F8011931559A42F7D19DF83A
:202B00000320022A08D1FA8BF2545A1CF98BD2B2090A0233B154DBB29DF8040078B1C41DC7
:202B200018443C44C0B21A460133DBB214F80159B5549842F7D103B0F0BD1346DFE7184638
:202B400003B0F0BD30B40278437802F00700C2F3C005C2F300140870C2F34010C2F38012FC
:202B60004D708C7003F00105C3F34004C8700A71C3F38100C3F301129B094D718C71C8715E
:202B800030BC0A724B727047012943DD2DE9F04186B00F4603A914460546FFF7D3FF03AB76
:202BA00003CB9DF811201B882383206161616AB3AE1C03A802AA01A9FFF760FE9DF8138091
:202BC000B8F1000F43D0029B002B31D1B8F1020FA38367D0B8F1030F4DD09DF81580B8F19E
:202BE000000F2CD0019BBBB9A38BE383B8F1020F4DD0B8F1030F31D0701B3B1A8742C4E93D
:202C00000E6300DA002006B0BDE8F081AB78A376EE1CCEE700207047717816F8023B029ADB
:202C200003EB01239BB2E383002ADFD1A383DDE7727816F8023B03EB02239BB2C6E71E4962
:202C400004F1080000F070FBA4F81E80D4E71A49204600F069FBA4F81C80BEE706F108002E
:202C6000034604F1080213F8011D02F8011BB342F9D10646C0E706F108000346621E13F848
:202C8000011D02F8011FB342F9D10646A5E70A4904F1080000F048FB7378237216F8023B17
:202CA0006372A9E70449204600F03EFB7378237016F8023B637090E77CCC000030B591B052
:202CC00002F024F9044602F035F96A4601462046FFF75AFF00283ED0044602F0FBF8D0B3E7
:202CE0009DF810100C2002F0CBF99DF81310082002F0C6F99DF817308BB1BDF81C50FFF77D
:202D0000B7FD854205D0BDF81C204FF6FF739A4221D19DF817006946FFF762FEB0B102A930
:202D20000D2002F0BBF99DF815303BB14FF6FF71072002F0A5F9204611B030BD9DF81A10BB
:202D4000072002F09DF9204611B030BD69460E2002F0A4F9E3E74FF0FF34ECE7F8B505463D
:202D60000C2014460E46A84700232074A37496B3E37463750920A847002701232376A07533
:202D800067740720A847A076FFF772FDE0830A20A84701280CBF3B4603236376FFF768FD7C
:202DA000A0830B20A84701281AD066B90323E375637E022B0CD0E37DA3F10203B3FA83F320
:202DC0005B092375F8BD0223E375637E022BF2D101232375F8BD0820A8476675E074C9E78D
:202DE000E775E5E730B591B00446FFF741FD4FF6FF7398425CD040226846002109F0F2FD31
:202E00002D4B1A782AB364BB02F05CF96A46C1B22A48FFF7A3FF02F055F900283DD04FF67E
:202E2000FF73ADF800300D2002F044F9014602A800F07AFA02F06AF80E9002F07BF80346FA
:202E400068460F93FFF7DEFD0546D4B9284611B030BD01221A7002F07FFB194B1870002C2C
:202E6000D2D0072002F014F90028CDD1144D2978D9B189B2072002F003F92B7801332B7076
:202E8000C2E701F0F7FF98B102F050F801466846FFF704FE284611B030BD0E2002F00AF9F3
:202EA0000146684600F040FABDE701212970E1E74FF0FF35CAE700BFC61D00209150000005
:202EC000C71D00200120FFF78DBF00BF0020FFF789BF00BF0649074A074B9B1A03DD043BE9
:202EE000C858D050FBDC07F0C7F9FDF7A9F90000ECD000000000002084030020FEE7FEE721
:202F0000FEE7FEE7FEE7FEE7FEE7FEE7FEE7FEE700F01F030121C0F34710994000F066B864
:202F200008B501F06DFB00B108BDBDE8084001F01DBB00BF30B583B01446022301F01F01E8
:202F400000228DF8063014F00C0341EA4015ADF8042006D0042B25D0082B27D00C2B02D10A
:202F600003238DF8043014F0030304D0022B15D0012B02D103238DF805300E4A01A9284633
:202F800001F048FB2306284603D401F041FC03B030BD012101F0D0FB03B030BD01238DF89A
:202FA0000530EAE701238DF80430DCE702238DF80430D8E7112F000001F01F0141EA401002
:202FC0001F28CABF054B4FF0A04300F01F00D3F8101521FA00F000F00100704700030050AA
:202FE0000146014800F0B4B91405002070B505460C480E4600F0AAF990B1044601E0246808
:2030000074B1237AAB42FAD1E36816EA0301F6D063682846002BF2D098472468002CF0D1A3
:2030200070BD00BF1405002008B5034800F08AF9BDE80840FFF774BF14050020EFF310802F
:2030400072B6704780F31088704700BF70B41A4A1A4D0023012440FA03F1C90712D59178EB
:20306000B9B11178567801F01F0141EA46111F29C6BF01F01F012E464FF0A04604FA01F195
:20308000C6F808150133042B02F10302E3D170BC70471178567801F01F0141EA46111F2931
:2030A000C6BF01F01F012E464FF0A04604FA01F1C6F80C15E6E700BF50CA00000003005019
:2030C0000E4A30B40E4D02F10C0403201378517803F01F0343EA41131F2BC6BF03F01F0365
:2030E00029464FF0A04103F5E0730332944241F82300EBD130BC0F20FFF7A8BF50CA000041
:203100000003005010B50948FDF7F2FE084800F06DFB50B1064C01460B7A5B080B72204655
:2031200000F02CFB01460028F6D110BDDC1D0020A80100200146014800F086BBA801002009
:2031400080B110B50446FDF77DFA2368C01AB0F5963F05D2207A032894BF0020012010BDE8
:20316000002010BD0020704770B50546144689B1022907D006290CD10146BDE870402A486B
:2031800000F062BB0146284800F05EFB0646002832D170BD0146244800F056FB0646002816
:2031A00035D0FDF74FFA337A30602344102BA8BF10233372FDF746FA3368C01AE401B0F57C
:2031C000963FA4B208D2337A042BB38834BF19220A222BB9B48070BDB3881922002BF9D0CA
:2031E00002FB04F41149C2F1640203FB0242A1FB02325209B28070BDFDF724FA337A30604C
:203200002344102BA8BF102333720C34D2E7334605482946082200F07BFB06460028B8D013
:2032200047F6FF73C380BCE7A80100201F85EB5138B50546042001F02BFF294604462348B5
:2032400024B200F001FB58B3B0F9062047F6FF739A4230D004EB840461005A251C4C83887D
:2032600012FB051284FB0214D217C2EB641424B2C480A3B96FF03B039C42A8BF1C466FF06E
:2032800058039C42B8BF1C465A344FF47063B3FBF4F4B4F5C07F28BF4FF4C074848038BDA3
:2032A000034629460948082200F032FB0028F6D047F6FF73C3808388C480002BEFD147F667
:2032C000FF739C42D6D14FF48074E7E7A80100201F85EB5138B5094800F088FA60B1074D34
:2032E00004462146284600F081FB2146284600F045FA04460028F4D138BD00BFA80100208B
:2033000010B50021054800F017FABDE81040044A044800234FF4E131FDF7DEBDA80100201A
:2033200005310000DC1D00200B684A6842600360704700BF08B5082209F01EFBB0FA80F08B
:20334000400908BD00230360704700BF006870470368DBB110B4002400E0134699420FD072
:203360001A681C46002AF8D100230B600368CBB11A461B68002BFBD111605DF8044B70475B
:203380000A686CB1226000221A60EDE700230B6003684BB11A461B68002BFBD111607047B5
:2033A0000260F0E70160E8E70160704730B405684DB12B46002400E01346994207D01A683B
:2033C0001C46002AF8D10D6030BC016070470A683CB1226000221A6005680D6030BC016083
:2033E00070470260F6E700BF03689BB110B4002400E0134699421A6805D01C46002AF8D1B9
:203400005DF8044B704734B1226000221A605DF8044B704770470260F7E700BF03682BB1F6
:2034200000201B680130002BFBD170471846704700B10068704700BF00B58BB002462821E5
:20344000684608F039FF6946024801F089FE0BB05DF804FB84CC0000F0B170B50024104E76
:20346000054654B1E3070DD5295D304601F078FE072C10D00134002CF4D12978304601F08C
:203480006FFEF7E72E2001F0EDFF295D304601F067FE072CEED170BD024801F061BE00BF2C
:2034A00098CC000088CC0000F8B5FDF7CBF8104E0746344600250D2001F0FCFD2146FFF732
:2034C00039FF103420B90135102DF4D10020F8BD072006EB051501F0DBFD2B7B8342F5D15E
:2034E000A868381AB0F5206F8CBF00200120F8BDD8050020F8B5174E0024374635460D209D
:2035000001F0D8FD2946FFF715FF1035F8B90134102CF4D10F2407EB0414254654F8100D2F
:203520006168A268E368A6420FC5F6D1072001F0AFFD3873FDF786F80346BB600D2001F087
:20354000B9FDBDE8F84001460248FFF7EDBE002CE1D1EBE7D805002040B120B40D4611468A
:203560001A46034628465DF8045B1847704700BF10B5044642884068002109F033FA238838
:203580006288A06802FB03F2BDE81040002109F029BA00BF30B44588ADB14368002202E0D8
:2035A0000132AA420CD0194601330C78002CF7D101230B700588806802FB050030BC70474C
:2035C000002030BC70472846F8E700BF30B44488826854B18A420CD00588002301E0914271
:2035E00008D00133A3422A44F9D14FF0FF3030BC704700234268D15C0029F6D00020D05464
:2036000030BC704783688B4208D84288008800FB023081422CBF0020012070470020704773
:20362000418849B143680020194413F8012B02B901308B42F9D170470846704738B5104BE1
:2036400005461048002D08BF1D46FFF77FFE60B10446211D2846FFF76DFE034620463BB9F2
:20366000FFF7E6FE04460028F3D14FF0FF3038BD054A064B9068241AA01003FB00F038BD6E
:203680007CCC000008070020BC010020ABAAAAAA2DE9F84F224CDFF89CA0DFF88C90214FEC
:2036A0000546884604F1200B54F8043FBBB19E68AEB1A5B1D9F80820AA1A91100C3207FB7D
:2036C00001F10CD05A68D86802FB010038B11AF801201B6842FA03F3DB0700D5B0475C45FC
:2036E000E2D1D5B1104B0F4A9B68EB1A9B1002FB03F30E490E480022CA5429460AF80320B6
:20370000FFF772FEB8F1000F01D1BDE8F88F29460548BDE8F84FFFF759BF4FF0FF33E8E797
:20372000D4060020ABAAAAAABC010020F806002008070020E007002038B10368072B04D853
:203740000C4A52F82330984210D00B4A1368072B0AD830B4074C03605D1C8160156044F833
:203760002300012030BC70470020704781600120704700BFD8060020DC070020F8B5184FFE
:20378000184C194D064608462EB358B1F1687368411A91FBF3F14A1C01EB410117D0B86841
:2037A00000EB8100FFF744FE80B1B968411A8B100C3104FB03F30CD07068F16800FB0310D0
:2037C00020B1EB5C32681341DB07DDD5F8BD0020E8E70020F8BD3046FFF72AFE3046F8BD17
:2037E000BC010020ABAAAAAAE007002010B504461148FFF7ABFD0146C0B1104B9868091A00
:203800009CB111F10C0F10D00D4B6268E068891003FB01F302FB030141B10A482268C35C7B
:203820001341DB0702D5084610BD00212046BDE81040FFF7A3BF00BF08070020BC010020C1
:20384000ABAAAAAAE007002010B504460846FFF7F5FE84B1431C02460DD06368E06803FBA8
:20386000020038B1054B21689B5C0B4113F0010F08BF002010BD002010BD00BFE0070020C7
:203880002DE9F84316460D46FFF7DEFF28B10024012006B13460BDE8F88304462846FFF71E
:2038A000CDFE0130F3D11648FFF7BAFE0028EEDC1448FFF74BFD8146F0B1DFF85080104F42
:2038C000114D0AE0204609F1040103F07DFA04464846FFF7ADFD814670B1BB68A9EB0303B4
:2038E0009B1005FB03F318F80330002BF0D1002CE8D109F10404EBE7201E18BF0120C8E75A
:20390000BC01002008070020ABAAAAAAF80600202DE9F04182B060B32F4B0C46002908BF8C
:203920001C46214601AA0546FFF7AAFF08B32046FFF784FE461C21D06A68EC6800FB0244D6
:203940000021204609F04EF8EB686A68E31A93FBF2F35A1C06D021492D68C85C0122AA4090
:203960000243CA54204602B0BDE8F081B8F1000F1DD10024204602B0BDE8F081184FDDF882
:2039800004803846FFF706FE06460028EED015483146FFF7DDFCBB682146301DF41AFFF77B
:2039A000C3FC14F10C0F12D16A680024C8E74046FFF744FE411CDCD0BB6800EB400013EB8D
:2039C0008006D6D000213046FFF762FEDFE7064BA01003FB00F0AFE77CCC0000E007002034
:2039E000BC01002008070020ABAAAAAA28B311B3C3684268CB1A93FBF2F35A1C1BD070B4C1
:203A00000F4E0568F45C012202FA05F524EA0504F454C3684468CB1A93FBF4F3591C0DD091
:203A2000084C0068E15C02FA00F021EA0001E154104670BC70470020704770471046F8E764
:203A4000E0070020F8060020A8B191B1C2684368891A91FBF3F14B1C0BD010B4064A0368FD
:203A6000545C012000FA03F3234353545DF8044B7047002070477047F8060020B0B199B1C6
:203A8000C2684368891A91FBF3F14B1C0CD010B4074C0268635C012000FA02F223EA02039A
:203AA00063545DF8044B704700207047704700BFF806002088B179B1C3684068C91A91FBE4
:203AC000F0F14B1C08D0054B986801EB410110EB810002D00430704700207047BC0100205B
:203AE00070B505460D480E46FFF730FC68B10446012D0CD01DB963680BB1984730B9204693
:203B0000FFF796FC04460028F2D1002070BDA3683046002BF3D09847F0E700BFF0070020A0
:203B2000054B10B51B689847044B5B689847044BBDE810405B68184704CD000088CB000093
:203B400064CE0000034A04499079D37903EB00230B807047FC1D0020B41D0020024B002258
:203B6000C3F8FC2F0120704700100040A1B1182810D8DFE800F00D770F0F6E65605B453F52
:203B80003A0F0F0F36322E2A0F26221E1A1713000020704701207047022070477D230B60B2
:203BA0000020704700200860704710230B60002070470A230B600020704720230B6000203D
:203BC000704703230B600020704708230B6000207047D8230B60002070471A230B60002054
:203BE00070470B230B6000207047244B1B780B6000207047224B93F900300B6000207047EF
:203C0000204B214A012082B018601368002BFCD00020106012681D4B0192019AD3F84835A9
:203C200003F07F035B420B6002B07047184B5B790B6000207047164B5B780B6000207047AF
:203C4000134BDB7800200860002BA1D001230B6070470F4B1B7800200860002B98D004231A
:203C60000B607047094B0B4AD3F80835A2FB03239B080A33DBB20B6000207047C81D0020FA
:203C8000C91D0020141000401C11004000100040D8010020CDCCCCCC0120704770B582B0A4
:203CA000FFF7CCF9BFF35F8F1C4B1B78ABB11C4B1C4902224FF0FF34C1F80843C3F8802191
:203CC000C3F88020BFF34F8FBFF36F8FBFF35F8F02B0BDE87040FFF7B5B9134903F0FF02EE
:203CE0000A600968114B019101991A601A680D490B4B00924FF0FF3502224FF44054009E1B
:203D0000C1F80853C3F88021C1F804431A60BFF35F8F02B0BDE87040FFF794B9D8010020D6
:203D200000E100E0001000403011004034110040144BD3F8FC0F28B1D3F85035DBB2032B53
:203D400001D000207047104B1B7803F0FF0073B10E4B1B78053B7A2BF3D80D4B1B68002B15
:203D6000EFD10C4B1868B0FA80F040097047074A1378053B7A2BE5D892F8800080F0010099
:203D8000704700BF00100040D8010020F407002030110040341100400C2801D00120704766
:203DA000042A05D121B1034B1B680B6000207047022070477808002070B51B4CD4F85055A4
:203DC000EDB2032D82B028D0184B1948194AC4F804051949C3F8102501264FF00062C3F829
:203DE0001415C3F80465C3F80425FFF757FFD4F8003243F01003C4F80032D4F80032022DE7
:203E000043F40023C4F8003209D00C4B0C4A002119601B680193019B166002B070BD094BDE
:203E20001E6002B070BD00BF0010004000F00140F4070020381100404C800040581100408C
:203E4000041000400810004070B52F4D2F49304A304B00242C6084B02D680095009D0C6091
:203E60000968019101991460126802922A4D029A1C6029781B6803934B1F7A2B039A38D81E
:203E80008C1E2246691C08F085FD2B195B783F2B2DD89B00DBB2214E214A3370D2F848359F
:203EA000204A03F07F035B425BB299B20420137001F0E6F83178032001F0E2F81A4B2A781A
:203EC0001A491A74D1F84C055860D1F8481599605200DA605D68104881220021023D1D60D7
:203EE00008F080FDFFF768FF204604B070BDFF23D1E781222146284608F074FDFFF75CFF9D
:203F0000204604B070BD00BF381100400C1100403411004030110040F4070020C81D00208F
:203F200000100040C91D0020780800200080004010B5038804461BB340F2C932934224D16C
:203F4000822901D0012010BD124A1378053B7A2B16D8114B1B6813B992F8803083B108F02C
:203F600073FA01F01BF800F0D1FF8021FFF76CFF002805DD80B200F0C3FF084BDB689847AB
:203F800040F2C9332380012010BD00230380032010BD00BFF40700203011004088CB00001E
:203FA0007D2910B50C4609D801460A48A31C00F8013B224608F0EEFC002010BD064A074900
:203FC000074801F0CDF821467D22064801F0C8F8012010BD8C080020A0CC0000B0CC00004D
:203FE00090CA0000B4CC000070B4164B1649174C0F22C3F810258A780A3A02EB8202C3F80D
:2040000008250879CD798A794979120642EA0522024342EA0142C3F86C2640F202260025FC
:204020000B48C3F834657F2140F20122C3F83845C3F83C55C3F81405C3F81815C3F8502673
:2040400070BC704700100040D8010020211001000800000608B5084BD3F8FC2F1AB1FFF72D
:20406000ABFE012008BD0122C3F8FC2FFFF7BCFFFFF7A2FE012008BD0010004030B585B011
:20408000FFF7E8FF104A11491148124C0023136015680395039D0B600D680295029D036014
:2040A0000368019301230198236001E00B6813B91368002BFAD0044A044B10681B68B0FAEF
:2040C00080F0400905B030BD48110040441100404C1100402C10004010B5072859D8DFE852
:2040E00000F0192258584D3A41042E4A2E48C9B25171D0F8FC3F5BB11179D4799379527931
:204100001B0643EA04230B4343EA0243C0F86C36002010BD012940D000293CD1224BC3F88B
:20412000FC1F084610BDA1F10B030F2B33D81D4A1D4BC8B29070D3F8FC2F002AE8D00A3900
:2041400001EB81010024C3F8FC4FC3F80815FFF781FF204610BD31F001001CD1114BC9B260
:20416000D97010BD0F4A104BC9B25170D3F8FC2F002ACDD0C3F80C15002010BD31F0070487
:2041800009D1084BC1F380011970FFF787FD204610BD012010BD022010BDFFF75BFF00203A
:2041A00010BD00BFD80100200010004010B57D2884B045D8294CFFF74DFFE378002B39D128
:2041C0006378274A2749DBB20120C2F80C350860D2F85035DBB2022BFAD12349234BC2F8AA
:2041E000043500230B600868019001980B66086E029002988B648B6C0393039BD2F8003235
:20420000012143F48023C2F80032116003F08AFB6FF002031C1A03F085FBE042FBD4104A75
:20422000D2F85035DBB20B2BFAD0FFF7C5FD002004B010BDFFF722FF0028C1D10220F7E778
:204240000B4A0C4904460C4800F08AFF21460B4800F086FF012004B010BD00BFD801002014
:20426000001000400C1000400C1100408C080020A0CC0000B0CC000090CA0000D0CC0000A3
:2042800010B50C46FFF78CFE2046BDE81040FFF78DBF00BF10B51A491A481B4A1B4C0023B2
:2042A0000B6003704B6023708B6082B0CB600B741360136800934FF0804301210098196065
:2042C0001368002BFCD0002414601368019321460F48019B00F0F2FF214681220D4808F033
:2042E00081FB0D4B0122C3F8FC2FFFF77DFE0B4A1378DBB21370FFF7D1FC204602B010BDD8
:2043000078080020C81D002000010040C91D0020C8010020F407002000100040D801002064
:20432000074A1378053B7A2B07D8064B1B6813B992F880007047012070470020704700BF0E
:20434000F407002030110040154B1B7803B1704700B503F0FF02134B196883B029B9124B69
:204360001A6882B903B05DF804FB1A601B6800930E480F4B009A012283F8802003B05DF859
:2043800004EB01F061B819601B68019381220848019B08F027FB03B05DF804EBFFF70CBD35
:2043A000D80100203011004034110040C8010020F407002010B568B90E4CA36801226270BA
:2043C0003BB1D3E900230020A2609847A368002BF7D110BD0128FCD1064C2369A070002B37
:2043E000F7D0D3E900230120226198472369002BF7D110BD0C09002010B50B4C237882B02A
:2044000013B1852002B010BD08486360A3602361E36000F03BF8019000F044F8019801233A
:20442000237002B010BD00BF0C090020B543000038B5154DAB78044673B110B14368012011
:2044400098470020FBF760FFEB680133EB600020BDE83840FBF760BF03F0FF00FBF754FFB5
:2044600064B12A6942B1944208D0134601E09C4204D01B68002BFAD122602C61EB68002B01
:20448000E2D100F025F8DFE70C090020044A137923B9012110609180184670478520704797
:2044A00020090020084B1A68D20704D4C02283F8002301221A60054A4FF080410123C1F8E4
:2044C00018351370704700BF00E100E06727002010B4094B094A0021196083B01B680193D8
:2044E000019C4FF0804102200123C1F80403136003B05DF8044B704704010040080000400B
:2045000010B5174B1A6882B062B10021154A19601B68507900934FF080410123009CC1F85C
:20452000083398B1104B1A68BAB100221A601B6801934FF0804202210A4B0198C2F8081315
:204540001B68012002B0BDE810401847116853718847054B1A68002AE7D102B010BD00BFB3
:2045600000010040200900200401004030B41F4C94F86A3082B0002B33D104F12F03204609
:2045800004F15F01FF2203F8012F8B42FBD14FF0FF3222600123072B88BFE11803F1010361
:2045A00040F8042F88BF81F858200C2BF3D11049104B0020C0228880606683F806234022D3
:2045C0001A600D4B0D4A18601B680193019D01214FF0004384F86A10C2F8043302B030BC5C
:2045E0007047082002B030BC704700BF280900208C09002000E100E07C6100400060004044
:20460000034B93F86A00003818BF0120704700BF28090020F0B4454F3B1893F93030002BBE
:204620005DDA91F802C0CCF3400CBCF1000F0CBF0823002307EB8304A4F104040CBF0C2605
:20464000082602E001339E424CD954F8045F0135F8D13C1847F8232084F83030BCF1000FF5
:204660004FD08A7854071AD4D5074ED41F284C7887BF2F4D00F01F0202464FF0A04502F591
:20468000E072A40045F822402A4DC40800F0070C2E5D012202FA0CF232432A558A7812F09F
:2046A000020222D09B0003F1804303F5C0430978D3F8104524F44F3424F44074C3F810459F
:2046C00002020904D3F8100501F4403102F47C520A430243C3F810250020F0BC7047082092
:2046E000F0BC70470420F0BC7047083B1F44097897F8603043EA811387F860301046F0BCB8
:204700007047FA1882F85800ABE71F2887BF084A00F01F0404464FF0A04202EB8402D2F8D2
:20472000004724F00204C2F80047ADE728090020000300508C09002070B4324C251883B018
:2047400095F93030072B22DD234493F858309B09032B46D0012B0CBF4FF400324FF44032B7
:204760001F288ABF284B4FF0A04300F01F0003EB8000D0F8003723F44033C0F80037D0F857
:2047800000371A43C0F8002703B070BC7047DAB2072AF9D8980000F1804000F5C04003F150
:2047A00040029200D0F8106592B202F1804202F5C04246F00106C0F8106500201060126882
:2047C0000192019A0029DFD095F9302054F82220002AD9D00D49012202FA03F3C1F8043339
:2047E000D2E71F288ABF084A4FF0A04200F01F03D2F8102598BF0346DA4002F00102023209
:204800001204ADE7280900200003005000600040194B034493F93030072B13DD1F288ABF61
:20482000164B4FF0A04300F01F0003EB8000D0F8003723F44033C0F80037D0F80037C0F849
:2048400000377047DAB2072A14D810B49A0002F1804202F5C0420A4CD2F81005012120F04E
:20486000010001FA03F3C2F81005C4F808335DF8044B7047704700BF28090020000300500B
:20488000006000402DE9F04F002289B0CDE9022216461546704B714C7148012204E00433C8
:2048A00083424FEA420211D019680129F7D1D4F804131142F3D01D601968009104338342DE
:2048C00046EA020600994FEA4202EDD1654B1A68012A07D016F0FF0F17D1002E32DB09B0A8
:2048E000BDE8F08F00221A601B6801934FF0A042019BD2F810255C4B0292D3F81035039344
:2049000016F0FF0F1ED046F00046584F01250024A30003F180432E4203F5C0434FEA4505E0
:204920000BD0D3F8100557F82420D3F81015C0F30520C1F3014102B190470134082CE7D1C0
:20494000002ECCDA4FF0FF33494D0DF1100ACDE906330022CAF804200492A5F16408454C44
:204960000027012614F9010B431C32D0C0F3C20E08AB03EB0E0C00F007031CF8081C06FAFF
:2049800003F31942C2B200F03F0022D008EB0009910999F9309058F82990B9F1000F4CD06B
:2049A00003294CD01F288BBFDFF8BCE04FF0A04E02F01F0202460EEB82021CF818ECD2F8C4
:2049C00000C71EEA030FCCF3014C1BD1BCF1030F3CD0A542C6D1002F81D04FF0A043029978
:2049E000D3F81035204A9942D2F8102503D1039991423FF474AFDDE90401CDE90232CDE95F
:204A00000601ACE7BCF1020FE3D1032904D0B9F1000FDED0C847DCE74FF4403CD2F8003791
:204A200023F44033C2F80037D2F8003701374CEA0303FFB2C2F80037E9E70329C9D11AF83C
:204A40000EB04BEA030B0AF80EB0ABE70329DED14FF4003CE2E700BF0061004000600040E0
:204A6000206100407C61004000030050280900208C0900208809002010B54FF0804386B051
:204A8000D3F80443620705D5D3F8082103F58473002A4ED1A30603D52A4B1A68002A3FD1E3
:204AA000600603D5284B1A68002A2FD1210602D5264B1A680ABBE20502D5254B1A6892B9E8
:204AC000A3050ED5234B1A685AB100221A601A68214B0592059A1B68022006B0BDE8104040
:204AE000184706B010BD00221A601B4A1B68049301201368049A9847E2E700201860164ADF
:204B00001B6803931368039A9847D4E700221A60124A1B68029301201368029A9847C5E7F7
:204B2000002018600D4A1B6801931368019A9847B6E700221A600A4A1B6800931368009AC2
:204B40009847A7E714010040180100401C01004020010040240100409C0900209809002091
:204B60009409002008B5FFF787FFBDE80840FFF7C7BC00BF074B0849084A0020186082B05B
:204B80001B680193019BD1F808051368C0B202B0184700BF00D1004000D00040A0090020E5
:204BA00070B443791E4C1F4E03EB430546F82320655D8DBB90F904308A78002B24DB03F1A0
:204BC000604303F561435201D2B283F8002390F90430002B07DB144D03F01F0601225B0957
:204BE000B24045F8232003680A88C3F8082543790879C97803EB4303E218012550709170CB
:204C0000E554002070BC7047084D03F00F0352011D44D2B22A76DAE7082070BC704700BF9B
:204C2000A4090020A809002000E100E0FCEC00E00368044A01211960437903EB43030221E6
:204C4000D1547047A409002010B403680022C3F8002183B0D3F80031026801930123019C90
:204C6000C2F8443311B10268C2F8043303B05DF8044B70472DE9F041274F284EDFF8A080AE
:204C800084B000244FF48035D7F804332B4211D056F824200023E0B262B1C7F84853C7F8FD
:204CA000085346F8243056F824300393D8F80030039A98470134032C4FEA4505E4D1164B56
:204CC000D3F80423D10702D5D3F80021C2B9124BD3F80423920710D5D3F804216AB10022D2
:204CE000C3F80421D3F804210D4B0192019A1B68052004B0BDE8F041184704B0BDE8F08103
:204D00000022C3F80021064AD3F80031029304201368029A9847DAE700B0004040B10040B8
:204D2000A809002010B5074C236882B03BB1064B1B6898470023236023680193019B02B01B
:204D400010BD00BF00010140AC09002070B5114B114A1D781160DDB9104E027801211970B5
:204D6000C6F80C25416804464FF47A720023C803490C07F085FCC6F80405237A084A5B0155
:204D8000DBB282F810334FF480331360284670BD082070BDCB1D0020AC0900200000014052
:204DA00000E100E0044B054901220220C3F804231A600870704700BF00000140CB1D0020BD
:204DC00010B504460020FBF79FFA0E4A1378072B11D80D492370581C1070D1F80805012245
:204DE00002FA03F30343C1F8083500240020FBF793FA204610BD04240020FBF78DFA204668
:204E000010BD00BFCA1D002000000140034B044A00F5C07043F82020704700BF00000140CB
:204E20003546526E2DE9F0410E4A0F4B16781F88F419802C03DD00242046BDE8F081DFF8F9
:204E4000308032464146054607F0A4FD074B1B7833443A46A81958FA83F107F09BFD204668
:204E6000BDE8F081CC1D0020B61D0020B81D0020B009002070B4134B134D144A2C781B78DB
:204E80001288234452FA83F39BB21A18802A15DC013B1BB2002B0CDB0D4A591C1E181144C3
:204EA0003244013B11F8016D02F801691BB25E1CF7D120442870012070BC7047002070BC0A
:204EC000704700BFB81D0020CC1D0020B61D0020B0090020084A138883420BDB10B40749E6
:204EE0000C8880B21B1A20440880138001205DF8044B704700207047B61D0020B81D0020FD
:204F0000014B1880704700BFB61D0020044A054B12781B780448134450FA83F0704700BFB3
:204F2000B81D0020CC1D0020B009002000487047B0090020014B1888704700BFB61D00206D
:204F40000549064A064B127808781B88104453FA80F080B2704700BFCC1D0020B81D0020FE
:204F6000B61D002010B50A4B0A4C0B49002220461A605A609A60DA601A615A611A83FEF7C2
:204F8000D3F904F108000449BDE81040FEF7CCB9181E0020081E00207CCC0000044805490E
:204FA000054A002303800B801370FFF7DBBF00BFB81D0020B61D0020CC1D002070B58029E0
:204FC00082B00B4A0B4D0C4E01900C464FF0000328BF8024137033802B80FFF7C3FF0199B5
:204FE0000648224607F0D6FC20462C8002B070BDCC1D0020B61D0020B81D0020B009002077
:20500000F0B40D4B0D4A1C685D689F68DE68C6600460456087601C695D69456104611B8B95
:205020000383D4685068936812680A60CC604860F0BC8B60704700BF181E0020081E00209A
:2050400070B40D4B026844688568C668DE601A605C609D60026944695C611A61028B1A83B8
:20506000064B0C6848688A68C968D9601C6058609A6070BC704700BF181E0020081E0020F3
:20508000024B23F810100120704700BF181E0020014B33F810007047181E002008B5044BFB
:2050A0000D3803EBC000FEF73FF9012008BD00BF081E0020024B0D3803EBC000704700BF2F
:2050C000081E002001490248FEF734B97CCC0000101E002008B5FDF7A7FFBDE80840FDF746
:2050E000EFBF00BF08B5FBF701FA002000F03AFA05F048FB02F016FD4FF08052064BD2F8EC
:20510000A800D2F8A4205A604CF6F4613622D87019809A7008BD00BFFC1D0020014800219E
:2051200000F0CCB87002002010B5FDF787FF0446BFF35F8F00F050F900B930BFBFF35F8FBF
:205140002046BDE81040FDF77DBF00BF0AB90020704708B508461146FBF72CFF002008BD07
:205160000FB400B583B004AA054852F8041B019204F0F8F803B05DF804EB04B0704700BF88
:20518000E80100202DE9F843DFF8A880D8F80040844205460F4645D0002C36D0234601E0AF
:2051A000002B32D01B689D42FAD173B3204EAB7BD6F80090F3B10023AB73002C34D0A54281
:2051C00009D0A37B13F0010F20462A464FF0870101D000F031F82468002CF0D1AB683BB1C6
:2051E000BD4205D035600022832105F10C009847D8F80040A5420AD02CB12368AB420CD09D
:205200001C46002CF9D1C6F80090BDE8F8832B68C8F80030C6F80090F7E72B682360C6F845
:205220000090F2E72346C0E7AB68002BD8D1EAE7B00B0020B40B00208368BBB170B50446BD
:205240000B4E0220A073346004F10C000D4698470238012804D9832D02D00123A37370BDD0
:2052600021462046BDE87040FFF78CBF704700BFB00B002038B50B4A0B4B146800221A70BA
:205280007CB1012501E024685CB1E37B002BFAD0E581204600228221FFF7CEFF2468002CE2
:2052A000F3D138BDB40B0020D01D0020024B1878421C1A70704700BFCE1D002070B50E4D83
:2052C0002C68844207D00A4634B1234600E01BB11B689842FBD170BD0028FCD0074E046050
:2052E0000121002334688173838181212860FFF7A3FF346070BD00BFB40B0020B00B0020D9
:2053000030B4074B07480849084A094C8A251D70002303700B601360237030BC704700BF6B
:20532000CE1D0020CF1D0020B40B0020B00B0020CD1D00202DE9F041224D2B78FBB9224E15
:205340003378C3B12148224C027802EB420704EB8701013202F01F02013B0270886814F840
:205360002770D1F80480DBB2337058B1812F1ED0827BD2071DD428781844BDE8F081FFF7A3
:2053800079FFDCE7134A14685CB9F4E7A37B13F0010F20464246394601D0FFF74DFF2468CC
:2053A0005CB12B78002BF1D0FFF764FFEEE70123837342463946FFF73FFF33782878184427
:2053C000BDE8F081D01D0020CF1D0020CD1D0020300A0020B40B0020024A034B10781B78A6
:2053E00018447047CF1D0020D01D002070B40D4D2C78202C12D00C4B0C4E1B78234403F093
:205400001F0303EB430301342C7006EB8304C4E9012006F82310002070BC7047012070BC9E
:20542000704700BFCF1D0020CD1D0020300A002038B5837B034CDB07256801D5FFF7FCFE17
:20544000256038BDB00B002018B1837B013B012B00D97047024A01231370C373704700BF99
:20546000D01D0020FBF79EBD10B5044607F0C2FA01462046FBF79EFDBDE810400A20FBF7C5
:2054800091BD00BF08B50448FEF772F8BDE808400248FEF76DB800BFFC010020F001002059
:2054A0000148FEF7BDB800BFF001002038B50E48FEF770F8044678B10C48FEF76BF805465F
:2054C000206058B1FFF7AEFC05F19C01A5F8800005F18200FFF794FD204638BD21460248E8
:2054E0002C46FEF773F8F7E7F0010020FC010020006800F19C018230FFF782BD10B50146E5
:2055000004460748FEF77EF800B910BD21680548FEF75CF821460248BDE81040FEF756B839
:20552000F0010020FC01002010B5014604460948FEF768F800B910BD2468B4F8801020468D
:20554000FFF73CFD04F19C0104F18200BDE81040FFF776BDF001002008B506F0DDFF80B223
:2055600008BD00BF0F4B0121002219601946C3F80021D1F80031002BFBD0D1F80805094A3C
:205580000023C0B2C1F80031D2F80031002BFBD0D2F80815012340EA012080B2536006F06A
:2055A00097BF00BF00D000400023013A0271016043718371704700BF10B481794279047980
:2055C000521A224208D003464A1C00682240405C9A715DF8044B70474FF0FF30F9E700BF9B
:2055E00038B505460C4605F0B9FA8DB10F4B2868696803C3ACB121460D4B51F8080F49688D
:2056000003C3BDE8384009480122002105F080BB0346064D59689A680068DB680FC5002CD8
:20562000E9D10449014805F0BDFCEAE748110020501100204421002010B5044C237803B1B8
:2056400010BDFFF7CDFF0123237010BDD11D002010B51C4C217882B029B31B4B002403F1D7
:2056600060011A7E1AB193F82A20012A15D020338B42F6D1204605F0D7FA04B9F8B102F016
:205680008DF84023024621460020009300F07EFB00F026FA002002B010BD9A7EFE2A08D090
:2056A00003F11A04E3E70846FFF79AFF01232370D3E7DA7E802ADAD003F11A04D7E74FF005
:2056C000FF30E8E7D11D0020AC1F0020054B187B30B1B3F84A00DB8AC01AB0FA80F0400978
:2056E000704700BF341E00202DE9F0471A4CDFF86C809DF82490164607460D4620464FF45E
:20570000B07200219A4607F06DF9B8F82030B34205D108994A46504602F090F810B9002014
:20572000BDE8F08701264FF0FF33F0214FF2F0026773E1732673A364A4F84C30A4F85A2075
:20574000C4F8088028686968AA68EB681C340FC43046BDE8F08700BF341E002038020020FF
:20576000437D012B01D900207047F0B590F8512090F8503083B0CDE900320446028A00F104
:205780003C032146007EFFF7AFFF48B3164B226A607D617FE58B5A610022666D1976618B01
:2057A0005D83257F83F85E20A77D83F856709873207D83F85500E07D1982996883F85720A4
:2057C0001E609D7483F854000B689847074801F091FD01F0A7FE01F0D7FE012003B0F0BD6E
:2057E000002003B0F0BD00BF341E00203CCD000008B5FFF76BFF084B08B983F85E009B68E2
:205800001B68984701F0BCFB044801F073FDBDE8084001F00FBF00BF341E002044CD0000E3
:205820000A4B93F9541093F85420002902F10102B4BFD2B202F07F02197B83F85420F02206
:20584000DA7301B97047FFF7D3BF00BF341E00202DE9F0414B4DB5F84A4001F0E1FE95F85E
:205860005E30032B5BD0FFF731FF804620B1AB68BDE8F041DB6918476F6C434E01F0A8FBF8
:2058800001F05AFB686C01F0D5FA03463068A5F84A30FDF7ABFF0446002836D1002F55D0CB
:2058A000B5F84A30B5F848209A4201D9A5F84830B5F84C304FF6FF7293420AD0B5F84A104C
:2058C000914206D0CB1A002BB8BF5B42B3F5007F3FDC95F85D30002BC9D06B6C002B3ED0CB
:2058E000002F46D001F036FD002385F85D30AB68BDE8F041DB69184723681BB3214630682E
:20590000FDF73CFF04460028C8D0204601F092FAB5F84A308342EFD8C4F80080EEE7002087
:2059200001F00AFB4FF6FF739C42A5F84A309ED0164801F0DFFC01F027FEAB68BDE8F0412E
:20594000DB691847FAF77EFE2060D7E7B5F84A30ACE70F48A5F84C1001F0CCFCB9E70B4843
:2059600085F85E3001F0C6FC01F05EFC01F00CFEBAE70123074885F85E3001F0BBFC01F06B
:20598000EFFDAFE7341E00205C02002054CD000064CD00007CCD000030B4084D2B7B53B117
:2059A000044630B11C350FCD20606160A260E360012030BC7047184630BC7047341E0020D2
:2059C00010B5FFF783FE134C78B994F95A2094F85A30002A03F10103B4BFDBB203F07F0347
:2059E000002084F85A3001F075F8FDF773FC01F0C7FA05F091FF01F0F1FD94F841305B064C
:205A000002D40023237310BD034801F001FF0023237310BD341E0020601E0020024B0322E6
:205A200083F85E2001F006BE341E002008B50F4B1A7B8AB11A6D511C0ED082420DD9101AB9
:205A4000B0F5967F186507D2586C28B101F0FEF9BDE8084000F0DABE08BD002103221965B3
:205A600083F85E20BDE8084001F0E4BD341E002010B5084C237B5BB194F840200146D2086C
:205A800004F11C0006F078FFB0FA80F0400910BD184610BD341E002008B5FFF717FE18B12A
:205AA000BDE80840FFF7BCBE08BD00BF024B1B7B03B97047FFF79CBE341E0020074B9A7B86
:205AC000187B1AB9003818BF0120704728B193F85E00012894BF002001207047341E0020D1
:205AE000024B1B7B03B97047FFF7B2BE341E00202DE9F041614D2A7B06460C462AB16A7B80
:205B0000237E9A4209D0BDE8F081FFF7DFFD98B12B7B002BF3D1BDE8F08159481022214619
:205B200006F02AFF0028EED1628AEB8A9A4209D2BDE8F041FFF78CBE2046FFF711FE00289E
:205B4000E6D1E0E7E17D95F8540001F009FE628A002840D14FF6FF739A4204D095F85930EE
:205B6000013385F8593095F85410E07D01F0F8FD48B1B5F84A20EB8A9A4257D0FFF7A6FD96
:205B8000074600286BD022460121304600F022FEE8B1304601F00EFA0746002843D090F82D
:205BA0000680304601F006FA002849D0638A8380637E83712B6DABB96B8BAA7BC3EB031317
:205BC0005B012B651AB117B16B6C9F4217D02B7B002B98D0ACE7EB8A9A42F8D1294801F05F
:205BE00089FBF4E7002FF2D06B6C9F42EFD16B8BAA7BC3EB03135B012B65002AE7D0607E53
:205C0000414601F0ADFD0028E1D095F90F20EB7B002A03F10103B4BFDBB203F07F03EB7371
:205C200001F098FBD3E74FF0F008BAE7E37D85F85430FFF74BFD0028A5D0FFF7F1FDA2E7A5
:205C4000304604F093FE0028C1D00F4B0146012218682346FDF75CFE0028A7D1B7E701F066
:205C6000BDFC384601F068F92046FFF779FD2B7B002B88D0FFF7BCFD85E700BF341E002054
:205C8000501E002088CD00005C02002011B1084801F030BB10B50A460321044600F09AFDAB
:205CA00020B12046BDE8104000F0CCBD10BD00BFA4CD000038B591F823300C460546BBB170
:205CC000FF2B1BBF0D4A508B4FF0FF3343430A460020294605F07CFD18B194F92530002B74
:205CE00000DB38BD218C2846BDE8384001F04CBB0A461846294605F051FDEEE7341E0020FD
:205D000070B5154D0E4695F85B10044601F028FD08B185F85B4095F85A30A34200D070BD86
:205D200095F85E30012B76B207D001F049FB002EF5DA032385F85E3070BD002E02DA01F092
:205D40003FFBF6E70223054885F85E3001F0D2FABDE8704001F034BB341E0020B4CD0000CA
:205D600070B50E461C4605463AB924B11DB1064BAE801B7B23B9012070BD01F0D5FAF4E78D
:205D8000FFF766FD012070BD341E00202DE9F047284C82B094F80CC09DF828A0054617469A
:205DA00099460E46BCF1000F0AD0102204F11C0006F0E2FD80B34FF0F008FFF701FE01E0C2
:205DC0004FF0F0083B463146CDE9009A28460122FFF78AFC184F194884F8548000230121DA
:205DE00040F608421E263C25A173228280214FF0FF32A37484F85530A4F85630022367618E
:205E000026766583A4F84A10226584F85E3002B0BDE8F04701F06EBA94F9543094F854805F
:205E2000002B08F10108B4BF5FFA88F808F07F08C3E700BF341E002000048000C0CD00007E
:205E400002484FF4B072002106F0CCBD341E0020144A907918B992F82A10632901D0012007
:205E6000704792F82910C1B992F82B30042B15D10D4B187B88B110B45C7B92F82D00A042DC
:205E80000ED1B3F84A1082F82D000B0A43EA0123D38501205DF8044B704770470846704781
:205EA0000846F7E74C210020341E002070B5174A0546118816482B2206F0A8F90446154864
:205EC000FFF7D6FD08B9002070BD1349002005F01FFC10490646002005F01AFC14B1A278B0
:205EE000032A06D00028EED0002EECD04369B342E9D1084C0FCC002148F2FE002880AA603A
:205F0000EB606980A980E980012070BD3C2100204C21002064210020501E00202DE9F043E7
:205F20002C4B2D48198885B02B2206F06FF9044610B18378032B03D0002005B0BDE8F08300
:205F4000C278002A41D04378417906790133DB00DBB2A3EB111306F00F052B443609183B7F
:205F6000C6F1100193FBF1F30133DBB29A42E3D8194F9B1ADBB201FB03F1C31B01F1080C11
:205F80001033012A18BF354663445B1BB3F5A06FD2D807F118030FCBE84688E80F0004EB3A
:205FA0000C06C5F1100905F1180031464A46384406F0F0FC4A4608EB0501304606F0EAFCB2
:205FC000E378013BE3700120B7E7012005B0BDE8F08300BF3C2100204C2100204378A3BB48
:205FE0002DE9F047425A40F263439A4200EB010428D11B4D2B7B2BB36A7BE3789A4221D121
:20600000A67816F020081DD1A388164A1F0A0D20D2F8009047EA0327FFF74CF801464846A1
:20602000FDF712FCA278B5F84A10F609BFB2C2F380130CD08F420ED242463946BDE8F04715
:20604000FFF78EBE0020BDE8F087002070478F4201D33246F1E742F04002A2700122ECE77A
:20606000341E00205C0200202DE9F0432B4E2C4F318883B038460DF10702012306F06CF804
:20608000002842D09DF80730062B3ED0044607F10609B84614E013B9A378632B16D0318864
:2060A000E31BC91A204689B200230DF1070206F053F8044648B39DF80730062B814624D0F6
:2060C000112B22D03A2B20D02B2BE4D1237889F8003065780135ED00684206F009F8C0B1D4
:2060E0003188283989B2404606F02CF83288E31B9A420EDDD21A6119204606F059FC99F884
:2061000000308DF80730062BDAD1012003B0BDE8F083002003B0BDE8F08300BF3C210020A4
:206120004C2100202DE9F04FA34E337B89B05BB3A24C228B48F2FE039A4225D0237EFF2B25
:2061400022D0FFF7C3FA054680B904F1080004F06BFD20B19A4BE2791B799A4219D0FFF75D
:2061600077FE0546284609B0BDE8F08F04F11809FFF77AFF4846FFF77BFC28B1494600200C
:2061800005F0C6FA804688BB0125284609B0BDE8F08F8C4F3A88B2F59F6FF6D8283A04F159
:2061A000280104F1300006F003FCB6F84A20A179767B84F82950130A43EA022340F263423E
:2061C000E385628584F82C5084F82810A571082084F82D6005F08CFF3988283989B220463A
:2061E00005F0B0FFFFF734FE0546CEE706F11C01002005F08DFA0190002848D049460020A3
:2062000005F0A6FA002842D0D8F81410002900F0C480019B8B4200F0C7806B4BCDF80C80B7
:206220009B6902934FF0000B0F270DF1100A8846029B414650469847DFF898C13946604671
:20624000D6465246002312F8015B10F8016FAE4202D10133102BF6D19F420CDAD8F8148065
:206260000BF10103DBB2B8F1000F15D0019A424512D09B46DCE700271EF8013B1CF8012F8F
:206280009A4206D10137102FF6D13946E6E700257BE73946FFB2E1E7C1F11006C7F1180AA0
:2062A00016FB0BAA5FFA8AFB1AF0070A1FBFCAF1080A5FFA8AFAD3445FFA8BFBDDF80C8040
:2062C0001D465B463F4A02931288D118B1F5A06FDDDC3E490888283021185844283A2044A1
:2062E000039106F065FB03995A460846002106F079FBA279029B84F828202B22A271B3F11F
:20630000080248BF03F1FF32D210314B2E4984F82920ABEB0A024FEA0A1A84F82B5084F83B
:206320002DA0D5180DF1100A8B69029307EB07120320574484F82A0084F82C204446DDF86C
:206340000480CDF804B0D346BA461F466269904521465846A5EB060508D0B847324651469C
:20636000284606F017FB6469002CEFD1DA46029BDDF804B02146504698479AE80F0089E8CA
:206380000F00584605F0B4FE0E4B0C481988283989B205F0D7FE0125F7E608230D468A46A4
:2063A0009B460F2701268DE7082300259B46AA460F27012686E700BF341E00204C21002082
:2063C000AC1F00203C210020E4CD0000C01D0020742100206321002008B50C4A137B43B1B9
:2063E0000B4B0C491B88527B2C3358185B5C9A4203D0BDE8084005F061BEC1788078FFF725
:206400007FFCBDE8084005F059BE00BF341E0020C01D00204C2100202DE9F0438FB026227D
:20642000002104A806F0DEFA3C4B3D4C1E883D4B217B06F12C02D518D25C8DF8322011B10E
:20644000617B914204D005F039FE0FB0BDE8F083354A95F801C017788DF835C008330FCBCB
:206460002C3FE94689E80F00BF1B0023217EEA788DF833101CF0400FCDE90433CDE9063305
:20648000FFB2ADF830202CD10424BC4220DA4FF0000803E001263444BC4219DA2B5D2A19B4
:2064A000002BF7D05678211D052B06F10206294408A820D1D2788DF834200732D2083444F3
:2064C000CDE90888CDE90A8806F064FABC42E5DB04A94846FFF7EEFB05F0F0FD0FB0BDE8BC
:2064E000F08304F11C001022291D06F045FA0028A9D11424C9E7062BCDD153798DF833305E
:20650000132EC8DDA21DAB18A85859689A68DB680DF1100CACE80F00BDE700BFC01D0020F0
:20652000341E00204C2100203C2100202DE9F04F9DB0382200210EA806F054FA954BDFF811
:2065400060A2B3F80090944A944B0C930AF1080315780FCB09F12C0B0BEB0A04A44601AF66
:2065600087E80F005CF8080F94F8028094F803E01BF80A302679DCF80410DCF808208DF860
:206580002C30DCF80C3094F801C08DF82BC02C3D4EEA082CADF826C026F07F0E06F0070CC6
:2065A000A5EB09058DF828E08DF82AC094F805E08DF82DE04FF0010CEDB2C6F3C208ADF82B
:2065C00024C005AEDFF8DCC18DF8298040F6084E182DADF82EE0CDF834C00FC640F2D580E9
:2065E0001821635C23B905F069FD1DB0BDE8F08F6218507802304618AE42F4DC023B062B7B
:20660000F1D80FF2080C5CF823F000BF2F670000D76600007D660000E7650000E765000028
:20662000E7650000296600002028DCD1631892F809C093F808909378D07A8DF864301031EA
:2066400063184FEA0C4C92F80AE092F803809A688DF865804CEA096C4CEA000C60585968DB
:20666000DB684CEA0E2C0DF1500ECDF860C0AEE80F00AE4280F289803146B2E71028B2D14B
:20668000214492F807C08B7A91F8069091F8088091F80EE0D17A507A41EA0321D37BADF841
:2066A00024104CEA092C40EA08205179ADF834C0ADF8360092F803C01079527B8DF82EC095
:2066C00043EA0E23ADF832308DF82F008DF830108DF83120CDE7082885DD04EB010C5379F8
:2066E0009CF804E092F802C092F807808DF84CC01B0443EA0E6392F806E0D2788DF84D20CB
:206700000CF1070243EA0803D21043EA0E2302F1070E86451293BFF666AFBCF1800F3FF648
:2067200062AF083121440EA806F034F9A1E705287FF759AF137992F803C090788DF86800D0
:20674000D90941EA4C018DF86910C3F3011C51798DF86AC003F00F038DF86B308DF86C106F
:20676000002886D0072809D002287FF43CAF9179D3798DF86E108DF86F307AE79179D379D7
:2067800043EA0123ADF86E3073E705A93846FFF7AFF928E7C01D00203C210020001E3C005E
:2067A0004C2100200004800008B5084B1B7B4BB10748017EA1F1FF01B1FA81F1083049091F
:2067C000FFF764FABDE8084005F078BC341E00204C210020F0B583B00E461746054604F088
:2067E0009FF8044610B1204603B0F0BD0D20FEF761FC22460146CDE900672846012304F060
:206800002DF80446204603B0F0BD00BF70B50446FFF766F9084B094D198809482C314B1964
:2068200000225A70944218BF20464A550223BDE870409B2104F0B0BDC01D00204C21002099
:20684000941F00202DE9F04F8BB00646FFF748F900F01AFF10B1002E00F02C81974B984AF9
:206860001B88984D2C339C18697B995495F85430637000F009FF002868D1B5F84A30E370F5
:206880001B0AA37095F855308F4FEA7B95F856C095F80E806271002B0FCF0CF0070C14BFEF
:2068A0006FF07F0E4FF0000E4CEAC8074EEA070727710027A060E16022616361A771E7719D
:2068C00000F0E2FE002845D12B78002B42D06978A878A376CA0142EA0012E87849080243B1
:2068E000E17602200621072B22772076617600F0DA80022B40F0DE80A879EA79637720211C
:20690000A077E27727234FF0290809932823CDE907384FF02B092A23CDE905394FF02F0A45
