:020000040000FA
:20000000000004209D1F0000C51F0000C71F0000C91F0000CB1F0000CD1F00000000000078
:20002000000000000000000000000000CF1F0000D11F000000000000D31F0000D51F0000FC
:20004000C93D0000AD350000119B0000D71F0000D71F0000D71F0000E93A0000D71F000011
:20006000116C0000D71F0000D71F0000D93E0000D71F0000D93D0000D71F0000D71F000008
:20008000893F0000D71F0000D71F0000D71F0000D71F0000D71F0000D71F0000D71F0000DE
:2000A000D71F0000D71F0000D71F0000D71F0000D71F0000D71F000000000000000000007C
:2000C000D71F0000D71F0000D71F0000D71F0000D71F0000D71F0000D71F0000D71F000070
:2000E000D71F0000D71F0000D71F00000000000000000000D71F000000000000D71F000032
:200100000000000000000000000000000000000000000000000000000000000000000000DF
:200120000000000000000000000000000000000000000000000000000000000000000000BF
:2001400000000000000000000000000000000000000000000000000000000000000000009F
:2001600000000000000000000000000000000000000000000000000000000000000000007F
:2001800000000000000000000000000000000000000000000000000000000000000000005F
:2001A00000000000000000000000000000000000000000000000000000000000000000003F
:2001C00000000000000000000000000000000000000000000000000000000000000000001F
:2001E0000000000000000000000000000000000000000000000000000000000000000000FF
:2002000001F0FF01102A2BDB10F0070F08D010F8013B013A8B422DD010F0070F42B3F6D1A4
:20022000F0B441EA012141EA014122F007047FF000070023F0E80256083C85EA010586EA51
:20024000010685FA47F5A3FA87F586FA47F6A5FA87F68EB9EED1F0BC01F0FF0102F007024C
:2002600032B110F8013B013A83EA010313B1F8D10020704701387047002D06BF35460338AF
:20028000073815F0010F07D1013015F4807F02BF013015F4C03F0130F0BC0138704700BF73
:2002A00010B5054C237833B9044B13B10448AFF300800123237010BD8803002000000000F1
:2002C00090D7000008B5034B1BB103490348AFF3008008BD000000008C03002090D700004C
:2002E000A3F5803A704700BF174B002B08BF134B9D46FFF7F5FF00218B460F461348144AB7
:20030000121A0CF02FFB0E4B002B00D098470D4B002B00D098470020002104000D000D487F
:20032000002802D00C48AFF300800BF03DFA2000290000F0FDF90BF023FA00BF000008000D
:2003400000000000000000000000042088030020A0270020000000000000000000B585B0FD
:200360000346002101AA44F20100CDE90111039300F004F805B05DF804FB00BF72B6094BA3
:200380001B68DB0700D500BEBFF34F8F0649074BCA6802F4E0621343CB60BFF34F8F00BFFA
:2003A000FDE700BFF0ED00E000ED00E00400FA0572B6024A1368013313607047A4030020F9
:2003C000034A1368013B136003B962B6704700BFA403002010B50446006830B1002104F028
:2003E000D7F854F8040F0028F8D110BD10B590F84C10094A013180F84C10044603468021DB
:20040000203000F0A5FD054B22461978BDE81040002004F055B900BFED0300009127002013
:200420002DE9F041038804463BB1B3F5867F0AD182290DD00120BDE8F0814FF4867323808E
:200440000120BDE8F081002303800320BDE8F08101F058FEBFF35F8F1649174B0E68002246
:200460000A601F781A70FFB2BFF35F8F134D01F04DFE28680028E0D0DFF8448003E055F8D1
:20048000040F0028D9D090F8463026FA03F3DA07F5D590F8453047FA03F3DB07EFD500F0EF
:2004A0009FFD0028EBD02B6842461846022100F04FFDE4E7B8030020AE1D002040010020F3
:2004C0002105000010B4094A094C13681943116021780346012202FA03F30B43DBB22370DD
:2004E00004485DF8044B04F019B900BFB8030020AE1D00205401002010B5044690F846105F
:2005000090F8450001F0BCFD10B994F8440010BD01280ABF94F84400002080F0010010BDDE
:2005200070B5044600F05CFD00B970BD04F12006304600F055FD05462046FFF7DDFF01289E
:200540000ED00028F1D1002DEFD1304600F02EFD0D4B224628461978BDE8704004F0B0B8E5
:20056000002DE2D0002530462346084A84F84C507E2100F0EDFC064B284622461978BDE859
:20058000704004F09DB800BF90270020ED03000092270020F8B503F0F3FF304B304C1870F2
:2005A00003F0EEFF2F4B304F187003F0E9FF2F4922682F4B08700025FF2139727B60FD60E3
:2005C000002A42D02B4E09E091F84600F9683A72834054F8042F0B43FB60B2B392F8463051
:2005E00092F84510926C03F01F0343EA41131F2BC6BF03F01F0331464FF0A04103F5E073C2
:2006000042F08C0241F82350236893F8461093F8450001F0F3FC226892F8463092F84500F9
:2006200003F01F0343EA4010012103F0B7F92168387A91F8452082424FF00103C4D0FF2878
:20064000C2D054F8042F002AC8D10B48002103F09FFFBDE8F840044801F026BD92270020EB
:200660004001002090270020A803002091270020C5040000000300505401002030B5174BC7
:2006800083B000221A6002F0E9FF00BB002003F001F8134B134A93E80300FF250090ADF858
:2006A0000410062400231048ADF8005069468DF802408DF8043003F0A5FB58B901210A4845
:2006C00003F0F4FB084803F0E5FB03B030BDFFF745FEDBE7FFF742FEF0E700BFBC030020CF
:2006E000B8CC000019070000C0CC0000014B1868704700BFBC03002008B5064A13680133ED
:20070000136000F097FF00B908BDBDE8084000F071BF00BFBC030020042800D07047FFF70E
:20072000EBBF00BF014B1868C0097047BC03002038B5664C03F0FCFDFFF7A0FF06F078FA9D
:2007400003F048FF6248002103F022FF00F0C6FB0AF0D8FF00F040FE07F090FE03F0F0FD6B
:2007600003F0FAFF02F052FA02F062FA2368022B24DC584A584B1168526819605A605748FF
:20078000002103F005FF4FF0FF3009F0F9FB2368022B054600F3818003F0EEFD5048FFF783
:2007A00019FE0AF0D9FF03F02FFF04460AF0DCFF14F0FF0FF7D103F0E5FDF4E7494A4A4960
:2007C0004A4803F037FE4A4803F0B8FF2368022BCFDD444A4449454803F02CFE454B4648DC
:2007E000196803F027FE2368022BC2DD3D4A3E493E4803F01FFE414B4148196803F01AFEC4
:200800002368022BB5DD374A3749384803F012FE3C4B3D48196803F00DFE2368022BA8DD42
:20082000304A3149314803F005FE38484AF6CD3103F000FE2368022B9BDD2A4A2A492B481C
:2008400003F0F8FD32481A2103F0F4FD2368022B8FDD244A2449254803F0ECFD2D4B2E48E1
:20086000198803F0E7FD2368022B82DD1D4A1E491E4803F0DFFD294803F0DCFD2368022BF1
:200880007FF777AF134801F049FE2368022B7FF770AF0A2003F050FF6BE7124A124913480C
:2008A00003F0C8FD1E4803F0C5FD2368022B7FF773AF05B10235284601F020FE2368022BF3
:2008C0007FF76AAF0A2003F037FF65E7B8010020980100202C1E002070210020B802002063
:2008E000B8D50000C8CC0000D0CC0000D8CC0000E8CC00009CD0000018CD00001CD10000A5
:2009000028CD0000D0CD000034CD000040CD00005CCD0000A01D00207CCD00008CCD00008F
:20092000A4CD000070B590F82D50012D04460FD91F2503F07BFF0246B0FBF5F1234601FBCD
:20094000152104F10C00054ABDE8704000F000BBE91C01258D40013DEBE700BFED09000054
:200960002DE9F04714460D468A6894F82C900646606BD2E9007801F099FD686803F028FF88
:20098000A968164801F096FE1548294601F092FE606B01F03DFD60B10023A3852046FFF768
:2009A000C1FF4B46324641463846BDE8F04701F047BE04F10C0000F0F9FA2146094801F00A
:2009C00075FD2146084801F075FE4B46324641463846BDE8F04701F033BE00BF640100207A
:2009E0007C010020280400207001002008B32DE9F047044682B0406B01F00AFD0546A8B1B2
:200A0000406803F0FBFE63490C2003F075FC0121072003F063FC00F063F900280ADAAB6800
:200A200023B1052022462946FFF79AFF02B0BDE8F087704703F0ACFBDFF85C8190F802906A
:200A4000D8F8047003F0A4FB064603F0ABFB01463046B84703F064FCD8F818600746B04740
:200A600070BB002F4AD1D8F81CA0D04740BBD8F8087003F097FBB84700285DD002281FD029
:200A8000AB68002BD2D00420CCE706F0B5F86FF028031E1A03E006F0AFF8C64202D5D047C4
:200AA0000028F8D0D04700285ED0D8F81030032101A89847032803D19DF806304B4524D0CF
:200AC000AA68002AB2D094F82D300133DBB2052B84F82D3094F82C3008D8127A9A4224D879
:200AE000224629460120FFF73BFF9FE70133DBB2002184F82C3084F82D10EEE7D8F80860C8
:200B000003F050FBB0470028B8D1AB68002B8DD094F82C3000200133294684F82C3084F855
:200B20002D002246FFF71CFF80E72046FFF7FAFE686803F047FE79E706F05EF86FF0180722
:200B40003F1A03E006F058F8C74202D5D0470028F8D0B047002898D1D047002895D1D8F82F
:200B600014309847002890D0A96800293FF45EAF94F82C300133DBB2002284F82C3084F831
:200B80002D200A7A9A42D0D8224629460220FFF7E7FE4BE72C1E0020BCCF00002DE9F041BE
:200BA00006460D200F4603F0B3FB054601F0E6FC01210B2003F092FB3C4801F029FCD0B1C0
:200BC000044603E001F096FC0446A0B12946201D01F012FC03462046002BF3D0606B01F0C6
:200BE0007FFC07281EDD394630460123BDE8F041062201F025BD2E4801F040FD0446002850
:200C0000F1D02946201D01F0F1FB002304F13000C4E90C30A38501F0F7FB2448214601F08A
:200C2000F9FBDBE7234801F029FD054650B3224801F024FDA86008B303F0A2FD6860C8B11C
:200C40000520D5F8088003F051FBC8E9006710F0FF000ABF082388F8080088F80830606BC5
:200C6000294601F0D7FB606B01F0D2FB854217D0BDE8F081A968104801F01CFD0D482946BE
:200C800001F018FD606B01F02BFC0028ABD12146064801F00BFC2146054801F00BFDA2E7E4
:200CA0002046BDE8F041FFF73DBE00BF28040020700100207C0100206401002008B505483F
:200CC00001F0CAFC044801F0C7FCBDE80840034801F0C2BC7C010020640100207001002003
:200CE00010B501210B2003F0F9FA024BBDE810405B68184728CF0000014B9B68184700BF34
:200D000028CF0000014B1B6A184700BFBCCF0000014B5B6A184700BFBCCF000010B50D4B8B
:200D200082B01B6898470C4B04469B6A01A91820984701280BD0002C0198B8BF1524802897
:200D4000D4BFC4EB0000C4F1800002B010BD002002B010BD28CF0000BCCF0000FFF71EBFA9
:200D600000B583B003F018FA032802D103B05DF804FBFFF7C1FF0028F8DB0D2003F0C8FAEE
:200D80001F4901F039FBE8B10C2003F0C1FA1C4901F032FB0028E9D101F0FAFBB8B1072078
:200DA00003F0A4FA0028E1D00223ADF8043003F0EFF9144B8278DB688DF80620032101A8DC
:200DC0009847D3E703F0ACFA0028DDD1CEE701F005FC072003F08AFA18B90B4B9B689847BD
:200DE000C4E70223ADF8043003F0D2F9054B8278DB688DF80620032101A89847EDE700BF15
:200E00002C1E0020BCCF00001CD1000030B50D4C83B0A56A69461820A84748B901A90420CB
:200E2000A84738B101F0A2FBFFF748FF236A984703B030BD0199E36A21F002010191042052
:200E40009847EFE7BCCF0000F0B5038883B0054633B14A2B18D188291BD0012003B0F0BD45
:200E60001B4801F0D5FA044630B1A168201D00F0C7FB2468002CF8D1164B01221A704A2330
:200E800001202B8003B0F0BD00230380032003B0F0BD0F48019201F0BBFA04460028EED03D
:200EA000019A031D9A4205D02468231D002CE6D09A42F9D10648084E214601F0F7FAD4E9C8
:200EC0000523376832600BB1E06998473760D6E708050020AF1D0020B00B002010B5064B77
:200EE000064800241C7001F08FFA21460448BDE8104003F04DBB00BFAF1D002008050020FF
:200F00008801002070B50E4C049E25784661C0E90623044635B9A1600A482146BDE87040AA
:200F200001F078BA084D094B2E682B60043000F067FB2E6021460348BDE8704001F06ABA94
:200F4000AF1D002008050020B00B00208801002010B5044C82B024680094FFF7D3FF02B013
:200F600010BD00BFB00B002070B50C4B1B7804462BB921460A48BDE8704001F04BBA094D73
:200F8000094B2E682B60043000F044FB2E6021460348BDE8704001F03DBA00BFAF1D002051
:200FA00008050020B00B00208801002010B50A4B1B7804463BB9C0E9033321460748BDE85B
:200FC000104001F073BA043000F03CFB21460348BDE8104001F06ABAAF1D00200805002073
:200FE00038B50C4B1D7804466DB90B4801F010FA38B1A04202D10BE0844209D000680028A2
:20100000FAD1012038BDBDE83840043000F00CBB002038BDAF1D00200805002010B50446AA
:20102000C0B208F02FFD204610BD00BF70B570B10E46451E002404E0A64206D008F022FD4E
:20104000013415F8010F0028F6D1204670BD0446FBE700BF002B1ADD013B70B4DEB201EBD3
:201060008606041F0439151F002051F8042F55F8043F134403449A428CBF0122002218BF43
:2010800010468E4244F8043FEFD170BC70470020704700BF002914DD70B4002423464E1E3B
:2010A000F31A23F0030503F003035559DB0025FA03F3651C03556CB28C422346F0DB70BC4C
:2010C00070477047D31C48BF931DF0B443F38704002C4FEAA30309DD013BDCB200EB840469
:2010E000031F002543F8045F9C42FBD1002A15DD00242346571EFB1A23F0030C0E5D50F859
:201100000C5003F00303DB00013406FA03F364B21D43944240F80C502346ECDBF0BC704701
:20112000F8B50D460446AB680868EF6849686160E7602060A36028696969AB69EF69E76138
:20114000164620616161A3611168B368F06852686262E0622162A3623169F0697269B369CE
:20116000E063216304F1600001216263A36300F093FA3246294604F14000BDE8F84000F000
:2011800071BB00BF70B588B0144606460D46684602F1600100F0B2FB6A462146304600F0F2
:2011A00061FB6A4604F12001284600F05BFB304600F082FA284600F07FFA08B070BD00BFFC
:2011C0002DE9F0411546C0B00C4601F1200806464146224610A805F1200700F0EBFA39462D
:2011E0002A4618A800F0E6FA18AA10A9684600F039FB2246414610A800F0B2FA2A46394670
:2012000018A800F0ADFA18AA10A908A800F02AFB05F1400204F1400118A800F023FB18A93A
:2012200010A81E4A00F01EFB05F1600204F1600118A800F017FB18AA1146104600F090FA2C
:201240006A4608A920A800F0B5FA10AA18A928A800F0B0FA10AA18A930A800F081FA6A4673
:2012600008A938A800F07CFA28AA20A9304600F0F9FA38AA30A906F1200000F0F3FA38AAF2
:2012800020A906F1400000F0EDFA30AA28A906F1600000F0E7FA40B0BDE8F0817CCE000054
:2012A00070B5B8B0044601F120060A4668460D4600F0D8FA3246314608A800F0D3FA05F1DA
:2012C0006002114610A800F0CDFA10AA1146104600F046FA3246294620A800F041FA20AAAB
:2012E000114618A800F0BEFA18A96A46084600F061FA18A908AA084600F05CFA6A4608A9BD
:2013000028A800F057FA10AA28A920A800F052FA08A930A800F07EFA30A96A46084600F075
:2013200049FA20AA18A9204600F09CFA30AA28A904F1200000F096FA30AA18A904F14000E3
:2013400000F090FA28AA20A904F1600000F08AFA38B070BD2DE9F041C0B080460F4616466C
:201360001C49684680220BF0D5FAFF25EA1005F00703B45C69461C416846FFF791FF04F08D
:2013800001043A46694620A8FFF71AFF234620AA6946684600F0CEF908A90846234628AAC1
:2013A00000F0C8F918A90846234638AA00F0C2F910A92346013D30AA084600F0BBF96B1CC4
:2013C000D4D16946404680220BF0A4FA40B0BDE8F08100BF9CCE00002DE9F041DFF84480E7
:2013E0000E4F0F48434608F11406394600220024002543F8042BB342E0E8024501F8012B20
:20140000F7D13B780BB1BDE8F08105F0F5FB0123C8F800003B70BDE8F08100BFF01D002009
:20142000C81D0020F81D0020F8B50D4C0D4E0E4D671D14F8013B33B9BC4206F1080605F105
:201440000405F6D1F8BD05F0D7FBD6E9002329682860411A521843F10003C6E90023EBE7A5
:20146000F01D0020C81D0020F81D002070B4074AD2E90401156893685668D4685B1946EBB9
:201480000404181844EB010170BC7047C81D002010B5FFF72BF90B4B1A68D2E9003192685E
:2014A0000B44191A52B1D2E9003423441B1A9268994228BF1946002AF5D14318024A1360F7
:2014C00010BD00BF100500200C0500202DE9F843038805465BB3592B2CD187292FD082290A
:2014E00020D12C4FDFF8B4803C684FF00009CCB1002603E0A3682646A3B11C46204608F078
:20150000B3FA0028F6D0E0682246882103F0D8F803464046002B2AD003F000F9A3682646BD
:20152000002BEAD159232B800120BDE8F883194A1360F7E7002303800320BDE8F883154F5C
:201540003968002019B9EDE789680120D9B1CB689342F9D000B139608B68002BE2D0D8685D
:20156000904207BF9B688B6019469B68F5E7E360A3686EB1B3603B68C4F808902BB1FFF75E
:2015800087FF3C68B3E73960CCE7034A1360C9E73B60F1E7100500200C0500209801002039
:2015A00010B50446104803F0B9F81049E3680A684BB142B194420FD0134601E09C420BD073
:2015C0009B68002BFAD10A4BA2601B68E3600C60BDE81040FFF75CBF054B1B68E360BDE8C8
:2015E0001040FFF755BF00BF9801002010050020B00B0020014803F091B800BF980100200C
:2016000010B5044608F01AFA2046BDE81040FFF7C7BF00BF10B5044608F018FA2046BDE8F5
:201620001040FFF7BDBF00BFC068B0FA80F04009704700BF024B1868003818BF0120704774
:201640001005002010B5124B19688142044614D00B462BB19A68A24206D01346002BF9D18A
:201660000023C4E9023310BDA2689A6049B1FFF70FFF0023C4E9023310BD82681A60002A36
:20168000F5D1044B00221A600023C4E9023310BD100500200C050020431EC21C03F8011F07
:2016A00093424FEA1121F9D100F11F02002103F8011F9342FBD1704770B4C27FD309DC005D
:2016C00002F07F02411E1C44C27789B003EB44030A4600F11F0512F8014F2344AA4213709C
:2016E000C3F30F23F7D16A460DF11F040D46132315F8016F334402F8013B9442C3F30F23F8
:20170000F6D1C27F803A13449BB243F3C0358DF81F30EDB20DF1FF3010F8012F11F8013F17
:2017200053402B40534084420B70F5D109B070BC704700BF5B4270B40138DEB2013A4C1E87
:2017400001F11F0514F8011F12F8013F4B4033404B40AC4200F8013FF4D170BC704700BFE7
:20176000F0B4441E013A26464D1E01F11F0C002315F8011F12F8017F394401EB1323654511
:2017800006F8013FF4D1C27FC3F3CF1303EBC30102F07F0203EB410300F81F2F9BB214F877
:2017A000012F13449BB2A04223704FEA1323F6D1F0BC70472DE9F041441EA4464D1E571ED4
:2017C00001F11E08DA2615F8013F17F801EF03F57F43A3EB0E03334445450CF8013F4FEACE
:2017E0001326F0D1D37FC97FCA1A931903F07F02DB0900F81F2F03EBC30203EB420314F835
:20180000012F1344A04223704FEA1323F7D1BDE8F08100BF421EF0B4DA2316464D1E01F106
:201820001E0715F8014FC4F57F442344BD4206F8013F4FEA1323F4D1C97F5B1A03F07F01A2
:20184000DB0900F81F1F03EBC30103EB410312F8011F0B44904213704FEA1323F7D1F0BCD9
:20186000704700BF2DE9F04F83B000F1FF3C0D4601F1200901F1FF3A01F11F070190E046D6
:201880004FF0010E00212626090A534602EB0E0013F801BF10F8014D9D420BFB0411F7D103
:2018A000BEF1200F0BD002F1200413F8010F14F801BD9F4210FB0BF006FB0011F5D101357E
:2018C000A94508F8011F0EF1010EDDD10198C27FCB0902F07F0203EBC30100F81F2F03EB37
:2018E00041031CF8012F134460458CF800304FEA1323F6D103B0BDE8F08F00BF70B588B087
:201900000E460A4604466846FFF7ACFF324669462046FFF7A7FFF825224621466846FFF7D1
:20192000A1FF324669462046FFF79CFF013DF3D1224621466846FFF795FF6A46694620461B
:20194000FFF790FF324621466846FFF78BFF6A4669462046FFF786FF224621466846FFF742
:2019600081FF324669462046FFF77CFF224621466846FFF777FF324669462046FFF772FF0C
:2019800008B070BD014B1888704700BF7803002000283ED0037A022B30B410D00378022B19
:2019A00015D00379B3B10024C37913F0030318BF012301B10C6002B1136030BC7047C579D9
:2019C000447A037965B90CB9012BF2D0DBB100231C46EEE7447A14F0030418BF0124E3E787
:2019E000C4B1032D37D1032C2ED0022C24D143BB022D2DD00123032D24D1A4F10204B4FA2E
:201A000084F46409D5E7023C012C8CBF00240124CFE770474BB9022D08BF0123EAD1A4F14B
:201A20000304B4FA84F46409C3E7032D01D0022D02D123461C46BCE7002BC8D1022DDAD153
:201A4000EDE701230024B4E7002BC0D10123D4E701231C46ADE7022DC7D1002BF1D1022C38
:201A60004FF00103DBD11C46A3E700BF30B500230B608B80437D0D46D9075CBF01232B7081
:201A8000037E012B83B0044623D901AA694604F11000FFF77DFF009B0BB10223EB70019BDC
:201AA0000BB102236B70E37D03F00303022B03D0032B14BF00230823AB70637E03F00303CD
:201AC000022B03D0032B14BF002308232B7103B030BDC37D9A0706D0437E9B0703D0C28B41
:201AE000838B9A4202D000232375CEE701230375CBE700BF02280CBF012307230B441A7889
:201B0000FF2A184603F1FF3303D18142F7D1012070470020704700BF30B583B06946FFF78E
:201B2000A5FF9DF800309DF801509DF802409DF803109DF804209DF8050002332B44234479
:201B40000B441344184403B030BD00BF70B4437882780578C478DB00120102F0100203F0AD
:201B600008031343027905F0070564012B4304F020049201234302F0400213430B704379E3
:201B80008579467AC479027A03F001036D0043EA861305F00205A0002B4300F00C0012018B
:201BA000034302F03002134370BC4B70704700BFF0B583B00E4607466946FFF757FF31461D
:201BC00007F11000FFF7C2FF9DF80030012B04BFBB7EB3709DF801300CBF03220222022B2F
:201BE00008D1BB8BB354531CB98BDBB2090A0232F154D2B29DF802304BB35D1E13443D4457
:201C0000DBB214460132D2B215F8011931559A42F7D19DF80320022A08D1FA8BF2545A1CD7
:201C2000F98BD2B2090A0233B154DBB29DF8040078B1C41D18443C44C0B21A460133DBB2B0
:201C400014F80159B5549842F7D103B0F0BD1346DFE7184603B0F0BD30B40278437802F02B
:201C60000700C2F3C005C2F300140870C2F34010C2F380124D708C7003F00105C3F34004AA
:201C8000C8700A71C3F38100C3F301129B094D718C71C87130BC0A724B727047012943DDD3
:201CA0002DE9F04186B00F4603A914460546FFF7D3FF03AB03CB9DF811201B88238320612D
:201CC00061616AB3AE1C03A802AA01A9FFF760FE9DF81380B8F1000F43D0029B002B31D149
:201CE000B8F1020FA38367D0B8F1030F4DD09DF81580B8F1000F2CD0019BBBB9A38BE38373
:201D0000B8F1020F4DD0B8F1030F31D0701B3B1A8742C4E90E6300DA002006B0BDE8F081A3
:201D2000AB78A376EE1CCEE700207047717816F8023B029A03EB01239BB2E383002ADFD162
:201D4000A383DDE7727816F8023B03EB02239BB2C6E71E4904F1080000F048FBA4F81E8086
:201D6000D4E71A49204600F041FBA4F81C80BEE706F10800034604F1080213F8011D02F86C
:201D8000011BB342F9D10646C0E706F108000346621E13F8011D02F8011FB342F9D106465F
:201DA000A5E70A4904F1080000F020FB7378237216F8023B6372A9E70449204600F016FB58
:201DC0007378237016F8023B637090E734CF000030B591B002F0CCF9044602F0DDF96A464E
:201DE00001462046FFF75AFF00283ED0044602F0A3F9D0B39DF810100B2002F06FFA9DF886
:201E00001310072002F06AFA9DF817308BB1BDF81C50FFF7B7FD854205D0BDF81C204FF66D
:201E2000FF739A4221D19DF817006946FFF762FEB0B102A90C2002F05FFA9DF815303BB168
:201E40004FF6FF71062002F049FA204611B030BD9DF81A10062002F041FA204611B030BD38
:201E600069460D2002F048FAE3E74FF0FF34ECE7F8B505460B2014460E46A84700232074CC
:201E8000A37496B3E37463750820A847002701232376A07567740620A847A076FFF772FD38
:201EA000E0830920A84701280CBF3B4603236376FFF768FDA0830A20A84701281AD066B96A
:201EC0000323E375637E022B0CD0E37DA3F10203B3FA83F35B092375F8BD0223E375637E6F
:201EE000022BF2D101232375F8BD0720A8476675E074C9E7E775E5E730B591B00546FFF7FD
:201F000041FD4FF6FF74A0423AD04022002168460AF028FD02F004FA6A4601461A48FFF750
:201F2000A7FF02F0FDF918B3ADF800400C2002F0EFF9014602A800F059FA02F019F90E9087
:201F400002F02AF9034668460F93FFF7E5FD044615B9204611B030BD02F0BEF880B102F004
:201F600017F901466846FFF723FE204611B030BD0D2002F0CDF90146684600F037FAD5E77A
:201F80004FF0FF34E5E700BFED4200000120FFF7B3BF00BF0020FFF7AFBF00BF0649074AEA
:201FA000074B9B1A03DD043BC858D050FBDC07F0F7FAFEF799F900009CD7000000000020E2
:201FC00088030020FEE7FEE7FEE7FEE7FEE7FEE7FEE7FEE7FEE7FEE700F01F030121C0F37D
:201FE0004710994000F066B808B501F03BFC00B108BDBDE8084001F0EBBB00BF30B583B0ED
:202000001446022301F01F0100228DF8063014F00C0341EA4015ADF8042006D0042B25D0FD
:20202000082B27D00C2B02D103238DF8043014F0030304D0022B15D0012B02D103238DF8F3
:2020400005300E4A01A9284601F016FC2306284603D401F00FFD03B030BD012101F09EFC20
:2020600003B030BD01238DF80530EAE701238DF80430DCE702238DF80430D8E7D91F0000DC
:2020800001F01F0141EA40101F28CABF054B4FF0A04300F01F00D3F8101521FA00F000F078
:2020A00001007047000300500146014800F0B2B91405002070B505460C480E4600F0A8F948
:2020C00090B1044601E0246874B1237AAB42FAD1E36816EA0301F6D063682846002BF2D053
:2020E00098472468002CF0D170BD00BF1405002008B5034800F088F9BDE80840FFF774BFD4
:2021000014050020EFF3108072B6704780F31088704700BF70B41A4A1A4D0023012440FA43
:2021200003F1C90712D59178B9B11178567801F01F0141EA46111F29C6BF01F01F012E4645
:202140004FF0A04604FA01F1C6F808150133042B02F10302E3D170BC70471178567801F055
:202160001F0141EA46111F29C6BF01F01F012E464FF0A04604FA01F1C6F80C15E6E700BFEB
:2021800098CC0000000300500E4A30B40E4D02F10C0403201378517803F01F0343EA4113E1
:2021A0001F2BC6BF03F01F0329464FF0A04103F5E0730332944241F82300EBD130BC0F2023
:2021C000FFF7A8BF98CC00000003005010B50948FEF7CAFE084800F07DFB50B1064C0146C6
:2021E0000B7A5B080B72204600F03CFB01460028F6D110BD0C1E0020A80100200146014847
:2022000000F096BBA801002080B110B50446FEF76DFA2368C01AB0F5963F05D2207A03289D
:2022200094BF0020012010BD002010BD0020704770B50546144689B1022907D006290CD167
:202240000146BDE870402A4800F072BB0146284800F06EFB0646002832D170BD01462448EC
:2022600000F066FB0646002835D0FEF73FFA337A30602344102BA8BF10233372FEF736FA23
:202280003368C01AE401B0F5963FA4B208D2337A042BB38834BF19220A222BB9B48070BD84
:2022A000B3881922002BF9D002FB04F41149C2F1640203FB0242A1FB02325209B28070BD80
:2022C000FEF714FA337A30602344102BA8BF102333720C34D2E7334605482946082200F095
:2022E0008DFB06460028B8D047F6FF73C380BCE7A80100201F85EB5138B50546042001F0CF
:20230000F5FF29460446214824B200F011FB38B3B0F9063047F6FF7293422CD004EB840415
:2023200062005A251A4C818813FB052384FB0324DB17C3EB641424B2C48081B904F15A02B4
:2023400012B222EAE2721E2A124BA8BF1E22D201A3FB0232120902F5807292B2828038BD29
:20236000034629460948082200F048FB0028F6D047F6FF73C3808388C480002BEFD147F6A0
:20238000FF739C42DAD14FF48072E7E7A80100201F85EB518988888838B5094800F09AFAB3
:2023A00060B1074D04462146284600F095FB2146284600F057FA04460028F4D138BD00BF18
:2023C000A801002010B50021054800F029FABDE81040044A044800234FF4E131FEF7B8BD7D
:2023E000A8010020CD2100000C1E00200B684A6842600360704700BF08B508220AF07CFAE5
:20240000B0FA80F0400908BD00230360704700BF006870470368DBB110B4002400E0134661
:2024200099420FD01A681C46002AF8D100230B600368CBB11A461B68002BFBD111605DF8F6
:20244000044B70470A686CB1226000221A60EDE700230B6003684BB11A461B68002BFBD126
:20246000116070470260F0E70160E8E70160704730B405684DB12B46002400E013469942BB
:2024800007D01A681C46002AF8D10D6030BC016070470A683CB1226000221A6005680D60C6
:2024A00030BC016070470260F6E700BF03689BB110B4002400E0134699421A6805D01C46AE
:2024C000002AF8D15DF8044B704734B1226000221A605DF8044B704770470260F7E700BF9A
:2024E00003682BB100201B680130002BFBD170471846704700B10068704700BF00B58BB07F
:2025000002462821684609F067F86946024801F091FF0BB05DF804FB3CCF0000F0B170B5CA
:202520000024104E054654B1E3070DD5295D304601F080FF072C10D00134002CF4D12978B7
:20254000304601F077FFF7E72E2002F0F5F8295D304601F06FFF072CEED170BD024801F0DE
:2025600069BF00BF50CF000040CF000008B502F05DF9014B187008BDB01D0020034B1978DC
:2025800006204A1C1A7001F0A9BE00BFB01D0020F8B5FEF7ABF8104E0746344600250C2066
:2025A00001F0B6FE2146FFF727FF103420B90135102DF4D10020F8BD062006EB051501F0A7
:2025C00095FE2B7B8342F5D1A868381AB0F5206F8CBF00200120F8BDD8050020F8B5174E51
:2025E0000024374635460C2001F092FE2946FFF703FF1035F8B90134102CF4D10F2407EB5A
:202600000414254654F8100D6168A268E368A6420FC5F6D1062001F069FE3873FEF766F8B1
:202620000346BB600C2001F073FEBDE8F84001460248FFF7DBBE002CE1D1EBE7D8050020FE
:2026400040B120B40D4611461A46034628465DF8045B1847704700BF10B5044642884068EA
:2026600000210AF07FF923886288A06802FB03F2BDE8104000210AF075B900BF30B445888A
:20268000ADB14368002202E00132AA420CD0194601330C78002CF7D101230B700588806813
:2026A00002FB050030BC7047002030BC70472846F8E700BF30B44488826854B18A420CD05F
:2026C0000588002301E0914208D00133A3422A44F9D14FF0FF3030BC704700234268D15C62
:2026E0000029F6D00020D05430BC704783688B4208D84288008800FB023081422CBF00201F
:202700000120704700207047418849B143680020194413F8012B02B901308B42F9D17047AE
:202720000846704738B5104B05461048002D08BF1D46FFF76DFE60B10446211D2846FFF7F4
:202740005BFE034620463BB9FFF7D4FE04460028F3D14FF0FF3038BD054A064B9068241A46
:20276000A01003FB00F038BD34CF000008070020BC010020ABAAAAAA2DE9F84F224CDFF86C
:202780009CA0DFF88C90214F0546884604F1200B54F8043FBBB19E68AEB1A5B1D9F80820B2
:2027A000AA1A91100C3207FB01F10CD05A68D86802FB010038B11AF801201B6842FA03F3D5
:2027C000DB0700D5B0475C45E2D1D5B1104B0F4A9B68EB1A9B1002FB03F30E490E48002248
:2027E000CA5429460AF80320FFF760FEB8F1000F01D1BDE8F88F29460548BDE8F84FFFF77F
:2028000059BF4FF0FF33E8E7D4060020ABAAAAAABC010020F806002008070020E00700208C
:2028200038B10368072B04D80C4A52F82330984210D00B4A1368072B0AD830B4074C03600B
:202840005D1C8160156044F82300012030BC70470020704781600120704700BFD806002039
:20286000DC070020F8B5184F184C194D064608462EB358B1F1687368411A91FBF3F14A1C8E
:2028800001EB410117D0B86800EB8100FFF732FE80B1B968411A8B100C3104FB03F30CD01B
:2028A0007068F16800FB031020B1EB5C32681341DB07DDD5F8BD0020E8E70020F8BD304650
:2028C000FFF718FE3046F8BDBC010020ABAAAAAAE007002010B504461148FFF799FD0146F9
:2028E000C0B1104B9868091A9CB111F10C0F10D00D4B6268E068891003FB01F302FB0301A9
:2029000041B10A482268C35C1341DB0702D5084610BD00212046BDE81040FFF7A3BF00BF0F
:2029200008070020BC010020ABAAAAAAE007002010B504460846FFF7F5FE84B1431C0246B9
:202940000DD06368E06803FB020038B1054B21689B5C0B4113F0010F08BF002010BD00209B
:2029600010BD00BFE00700202DE9F84316460D46FFF7DEFF28B10024012006B13460BDE8E3
:20298000F88304462846FFF7CDFE0130F3D11748FFF7BAFE0028EED11548FFF739FD81460A
:2029A00010B3DFF85480114F124D0AE0204609F1040103F073FB04464846FFF79BFD81460D
:2029C00070B1BB68A9EB03039B1005FB03F318F80330002BF0D1002CE8D109F10404EBE790
:2029E000201E18BF0120C8E72046C6E7BC01002008070020ABAAAAAAF80600202DE9F041C5
:202A000082B060B32F4B0C46002908BF1C46214601AA0546FFF7A8FF08B32046FFF782FEC2
:202A2000461C21D06A68EC6800FB02440021204609F098FFEB686A68E31A93FBF2F35A1CBA
:202A400006D021492D68C85C0122AA400243CA54204602B0BDE8F081B8F1000F1DD1002415
:202A6000204602B0BDE8F081184FDDF804803846FFF704FE06460028EED015483146FFF7F6
:202A8000C9FCBB682146301DF41AFFF7AFFC14F10C0F12D16A680024C8E74046FFF742FE87
:202AA000411CDCD0BB6800EB400013EB8006D6D000213046FFF760FEDFE7064BA01003FBE5
:202AC00000F0AFE734CF0000E0070020BC01002008070020ABAAAAAA28B311B3C36842683D
:202AE000CB1A93FBF2F35A1C1BD070B40F4E0568F45C012202FA05F524EA0504F454C3683C
:202B00004468CB1A93FBF4F3591C0DD0084C0068E15C02FA00F021EA0001E154104670BCB5
:202B200070470020704770471046F8E7E0070020F8060020A8B191B1C2684368891A91FB57
:202B4000F3F14B1C0BD010B4064A0368545C012000FA03F3234353545DF8044B7047002087
:202B600070477047F8060020B0B199B1C2684368891A91FBF3F14B1C0CD010B4074C026872
:202B8000635C012000FA02F223EA020363545DF8044B704700207047704700BFF8060020D8
:202BA00088B179B1C3684068C91A91FBF0F14B1C08D0054B986801EB410110EB810002D084
:202BC0000430704700207047BC01002070B505460D480E46FFF71CFC68B10446012D0CD0C2
:202BE0001DB963680BB1984730B92046FFF782FC04460028F2D1002070BDA3683046002BA8
:202C0000F3D09847F0E700BFF0070020054B10B51B689847044B5B689847044BBDE81040B9
:202C20005B681847BCCF0000D0CD00001CD10000034A04499079D37903EB00230B8070471B
:202C40002C1E0020A01D0020A1B1182810D8DFE800F00D770F0F6E65605B453F3A0F0F0FE1
:202C600036322E2A0F26221E1A1713000020704701207047022070477D230B600020704771
:202C800000200860704710230B60002070470A230B600020704720230B6000207047032366
:202CA0000B600020704708230B6000207047D8230B60002070471A230B60002070470B237B
:202CC0000B6000207047244B1B780B6000207047224B93F900300B6000207047204B214A2D
:202CE000012082B018601368002BFCD00020106012681D4B0192019AD3F8483503F07F033A
:202D00005B420B6002B07047184B5B790B6000207047164B5B780B6000207047134BDB78A2
:202D200000200860002BA1D001230B6070470F4B1B7800200860002B98D004230B607047D8
:202D4000094B0B4AD3F80835A2FB03239B080A33DBB20B6000207047B11D0020B21D002073
:202D6000141000401C11004000100040D8010020CDCCCCCC0120704770B582B0FFF7C2F928
:202D8000BFF35F8F1C4B1B78ABB11C4B1C4902224FF0FF34C1F80843C3F88021C3F8802020
:202DA000BFF34F8FBFF36F8FBFF35F8F02B0BDE87040FFF7ABB9134903F0FF020A600968A7
:202DC000114B019101991A601A680D490B4B00924FF0FF3502224FF44054009EC1F8085311
:202DE000C3F88021C1F804431A60BFF35F8F02B0BDE87040FFF78AB9D801002000E100E063
:202E0000001000403011004034110040144BD3F8FC0F28B1D3F85035DBB2032B01D0002052
:202E20007047104B1B7803F0FF0073B10E4B1B78053B7A2BF3D80D4B1B68002BEFD10C4B1E
:202E40001868B0FA80F040097047074A1378053B7A2BE5D892F8800080F00100704700BF69
:202E600000100040D8010020F407002030110040341100400C2801D001207047042A05D107
:202E800021B1034B1B680B6000207047022070477808002070B51B4CD4F85055EDB2032D08
:202EA00082B028D0184B1948194AC4F804051949C3F8102501264FF00062C3F81415C3F843
:202EC0000465C3F80425FFF757FFD4F8003243F01003C4F80032D4F80032022D43F40023A0
:202EE000C4F8003209D00C4B0C4A002119601B680193019B166002B070BD094B1E6002B038
:202F000070BD00BF0010004000F00140F4070020381100404C800040581100400410004097
:202F20000810004070B52F4D2F49304A304B00242C6084B02D680095009D0C600968019111
:202F400001991460126802922A4D029A1C6029781B6803934B1F7A2B039A38D88C1E22463E
:202F6000691C09F0D7FC2B195B783F2B2DD89B00DBB2214E214A3370D2F84835204A03F031
:202F80007F035B425BB299B20420137001F0A6F93178032001F0A2F91A4B2A781A491A7433
:202FA000D1F84C055860D1F8481599605200DA605D68104881220021023D1D6009F0D2FC30
:202FC000FFF768FF204604B070BDFF23D1E781222146284609F0C6FCFFF75CFF204604B0D5
:202FE00070BD00BF381100400C1100403411004030110040F4070020B11D002000100040A0
:20300000B21D0020780800200080004010B5038804461BB340F2D332934224D1822901D07C
:20302000012010BD124A1378053B7A2B16D8114B1B6813B992F8803083B108F095FB01F056
:20304000DFF801F095F88021FFF76CFF002805DD80B201F087F8084BDB68984740F2D333C0
:203060002380012010BD00230380032010BD00BFF407002030110040D0CD00007D2910B5C6
:203080000C4609D801460A48A31C00F8013B224609F040FC002010BD064A0749074801F007
:2030A000C9F921467D22064801F0C4F9012010BD8C08002058CF000068CF0000D8CC0000A8
:2030C0006CCF000070B4164B1649174C0F22C3F810258A780A3A02EB8202C3F8082508792D
:2030E000CD798A794979120642EA0522024342EA0142C3F86C2640F2022600250B48C3F8CC
:2031000034657F2140F20122C3F83845C3F83C55C3F81405C3F81815C3F8502670BC7047CD
:2031200000100040D8010020211001000800000610B50F4BD3F8FC2F32B10E4CFFF7AAFE16
:20314000237963B1012010BD01220A4CC3F8FC2FFFF7B8FFFFF79EFE2379002BF2D103F0B6
:203160004BFD054A012310612371012010BD00BF00100040F01D0020F81D002030B585B016
:20318000FFF7D6FF104A11491148124C0023136015680395039D0B600D680295029D036035
:2031A0000368019301230198236001E00B6813B91368002BFAD0044A044B10681B68B0FAFE
:2031C00080F0400905B030BD48110040441100404C1100402C10004010B51A491A481B4A5E
:2031E0001B4C00230B6003704B6023708B6082B0CB600B741360136800934FF080430121BD
:20320000009819601368002BFCD0002414601368019321460F48019B01F0BAF9214681227C
:203220000D4809F09FFB0D4B0122C3F8FC2FFFF749FF0B4A1378DBB21370FFF79DFD204621
:2032400002B010BD78080020B11D002000010040B21D0020C8010020F407002000100040DD
:20326000D8010020074A1378053B7A2B07D8064B1B6813B992F8800070470120704700205C
:20328000704700BFF40700203011004070B57D2884B000F28180474CFFF74AFFE378002BD3
:2032A00074D16378444A4549DBB20120C2F80C350860D2F85035DBB2022BFAD1404B4149D8
:2032C000C2F8041500241C601968019101991C66196E029102999C6448333B4D1B6803937B
:2032E000039BD2F8003223F01003C2F8003203F083FC2B795BB1354B354E19692C71D6E91F
:203300000823411A521843F10003C6E90823EB78002B36D0284BD3F80022012142F48022BE
:20332000C3F80022196003F067FC6FF002031C1A03F062FCE042FBD41F4AD2F85035DBB2C0
:203340000B2BFAD0FFF7A6FD03F056FCEB78024663B11F4C1D4BD4E90601DB68D31AC01831
:2033600041F10001C4E906010023EB70287910B1002004B070BD154C01212261297104B031
:2033800070BD124A0123D060EB70C3E7FFF7F6FE002886D10220ECE70E4A0F4904460F489C
:2033A00001F048F821460E4801F044F8012004B070BD00BFD8010020001000400C1000408C
:2033C0000C1100408C080020F01D0020F81D0020C81D002058CF000068CF0000D8CC000073
:2033E00088CF000010B50C46FFF748FE2046BDE81040FFF74BBF00BF104B114A012170B50C
:203400001960D2F8504514F0FF04FAD10D4DC2F8FC4F2B790BB9012070BD03F0EDFB0A49BF
:203420000A4B2C711E69D1E90823801B121843F10003C1E90823012070BD00BF10100040F0
:2034400000100040F01D0020C81D0020F81D0020F0B583B007287FD8DFE800F01B3D7E7E4C
:203460005F6972044B4A4C48C9B25171D0F8FC3F5BB11179D479937952791B0643EA042376
:203480000B4343EA0243C0F86C360024204603B0F0BD012979D0002962D1404A3E4B012124
:2034A0001160D3F8504514F0FF04FAD13C4DC3F8FC4F2B79002BE8D003F09EFB394B3A49C0
:2034C0001E692C71D1E90823801B121843F10003C1E90823DAE7A1F10B030F2B40D82D4AE8
:2034E0002D4BC8B29070D3F8FC2F002ACDD02B4A01201060D3F8504514F0FF04FAD1284D70
:20350000C3F8FC4F2B797BBB234B0A3901EB8101C3F80815FFF70CFEB8E731F007041FD119
:203520001C4BC1F380011970FFF726FCAEE731F0010415D1174BC9B22046D97003B0F0BDC1
:20354000144A154BC9B25170D3F8FC2F002A9CD0C3F80C15002499E70124204603B0F0BD7A
:203560000224204603B0F0BD0F4E019103F044FB0C4B01991F692C71D6E90823C01B121839
:2035800043F10003C6E90823BEE7FFF7D1FD00247CE700BFD80100200010004010100040C2
:2035A000F01D0020F81D0020C81D0020154B1B7803B1704700B503F0FF02134B196883B08B
:2035C00029B9124B1A6882B903B05DF804FB1A601B6800930E480F4B009A012283F88020D0
:2035E00003B05DF804EB01F099B819601B68019381220848019B09F0B5F903B05DF804EBD5
:20360000FFF748BCD80100203011004034110040C8010020F407002010B568B90E4CA36862
:20362000012262703BB1D3E900230020A2609847A368002BF7D110BD0128FCD1064C23692A
:20364000A070002BF7D0D3E900230120226198472369002BF7D110BD0C09002010B50B4C69
:20366000237882B013B1852002B010BD08486360A3602361E36000F03BF8019000F044F8D8
:2036800001980123237002B010BD00BF0C0900201936000038B5154DAB78044673B110B177
:2036A0004368012098470020FCF782FEEB680133EB600020BDE83840FCF782BE03F0FF0098
:2036C000FCF776FE64B12A6942B1944208D0134601E09C4204D01B68002BFAD122602C61C6
:2036E000EB68002BE2D100F025F8DFE70C090020044A137923B90121106091801846704723
:203700008520704720090020084B1A68D20704D4C02283F8002301221A60054A4FF0804112
:203720000123C1F818351370704700BF00E100E09327002010B4094B094A0021196083B093
:203740001B680193019C4FF0804102200123C1F80403136003B05DF8044B704704010040E9
:203760000800004010B5174B1A6882B062B10021154A19601B68507900934FF08041012317
:20378000009CC1F8083398B1104B1A68BAB100221A601B6801934FF0804202210A4B019843
:2037A000C2F808131B68012002B0BDE810401847116853718847054B1A68002AE7D102B018
:2037C00010BD00BF00010040200900200401004030B41F4C94F86A3082B0002B33D104F1C3
:2037E0002F03204604F15F01FF2203F8012F8B42FBD14FF0FF3222600123072B88BFE1186F
:2038000003F1010340F8042F88BF81F858200C2BF3D11049104B0020C0228880606683F813
:20382000062340221A600D4B0D4A18601B680193019D01214FF0004384F86A10C2F804331C
:2038400002B030BC7047082002B030BC704700BF280900208C09002000E100E07C610040F3
:2038600000600040034B93F86A00003818BF0120704700BF28090020F0B4454F3B1893F957
:203880003030002B5DDA91F802C0CCF3400CBCF1000F0CBF0823002307EB8304A4F1040425
:2038A0000CBF0C26082602E001339E424CD954F8045F0135F8D13C1847F8232084F8303062
:2038C000BCF1000F4FD08A7854071AD4D5074ED41F284C7887BF2F4D00F01F0202464FF05F
:2038E000A04502F5E072A40045F822402A4DC40800F0070C2E5D012202FA0CF232432A5575
:203900008A7812F0020222D09B0003F1804303F5C0430978D3F8104524F44F3424F4407458
:20392000C3F8104502020904D3F8100501F4403102F47C520A430243C3F810250020F0BC0E
:2039400070470820F0BC70470420F0BC7047083B1F44097897F8603043EA811387F8603088
:203960001046F0BC7047FA1882F85800ABE71F2887BF084A00F01F0404464FF0A04202EBCE
:203980008402D2F8004724F00204C2F80047ADE728090020000300508C09002070B4324CE6
:2039A000251883B095F93030072B22DD234493F858309B09032B46D0012B0CBF4FF40032AA
:2039C0004FF440321F288ABF284B4FF0A04300F01F0003EB8000D0F8003723F44033C0F84F
:2039E0000037D0F800371A43C0F8002703B070BC7047DAB2072AF9D8980000F1804000F5F3
:203A0000C04003F140029200D0F8106592B202F1804202F5C04246F00106C0F81065002025
:203A2000106012680192019A0029DFD095F9302054F82220002AD9D00D49012202FA03F3EC
:203A4000C1F80433D2E71F288ABF084A4FF0A04200F01F03D2F8102598BF0346DA4002F0FD
:203A6000010202321204ADE7280900200003005000600040194B034493F93030072B13DD68
:203A80001F288ABF164B4FF0A04300F01F0003EB8000D0F8003723F44033C0F80037D0F856
:203AA0000037C0F800377047DAB2072A14D810B49A0002F1804202F5C0420A4CD2F810053F
:203AC000012120F0010001FA03F3C2F81005C4F808335DF8044B7047704700BF28090020DA
:203AE00000030050006000402DE9F04F002289B0CDE9022216461546704B714C714801223E
:203B000004E0043383424FEA420211D019680129F7D1D4F804131142F3D01D60196800916C
:203B20000433834246EA020600994FEA4202EDD1654B1A68012A07D016F0FF0F17D1002E1F
:203B400032DB09B0BDE8F08F00221A601B6801934FF0A042019BD2F810255C4B0292D3F806
:203B60001035039316F0FF0F1ED046F00046584F01250024A30003F180432E4203F5C04336
:203B80004FEA45050BD0D3F8100557F82420D3F81015C0F30520C1F3014102B190470134D7
:203BA000082CE7D1002ECCDA4FF0FF33494D0DF1100ACDE906330022CAF804200492A5F103
:203BC0006408454C0027012614F9010B431C32D0C0F3C20E08AB03EB0E0C00F007031CF8D4
:203BE000081C06FA03F31942C2B200F03F0022D008EB0009910999F9309058F82990B9F120
:203C0000000F4CD003294CD01F288BBFDFF8BCE04FF0A04E02F01F0202460EEB82021CF814
:203C200018ECD2F800C71EEA030FCCF3014C1BD1BCF1030F3CD0A542C6D1002F81D04FF0D5
:203C4000A0430299D3F81035204A9942D2F8102503D1039991423FF474AFDDE90401CDE978
:203C60000232CDE90601ACE7BCF1020FE3D1032904D0B9F1000FDED0C847DCE74FF4403C56
:203C8000D2F8003723F44033C2F80037D2F8003701374CEA0303FFB2C2F80037E9E7032995
:203CA000C9D11AF80EB04BEA030B0AF80EB0ABE70329DED14FF4003CE2E700BF0061004082
:203CC00000600040206100407C61004000030050280900208C0900208809002010B54FF058
:203CE000804386B0D3F80443620705D5D3F8082103F58473002A4ED1A30603D52A4B1A68D2
:203D0000002A3FD1600603D5284B1A68002A2FD1210602D5264B1A680ABBE20502D5254B28
:203D20001A6892B9A3050ED5234B1A685AB100221A601A68214B0592059A1B68022006B015
:203D4000BDE81040184706B010BD00221A601B4A1B68049301201368049A9847E2E700206F
:203D60001860164A1B6803931368039A9847D4E700221A60124A1B68029301201368029A58
:203D80009847C5E7002018600D4A1B6801931368019A9847B6E700221A600A4A1B680093FA
:203DA0001368009A9847A7E714010040180100401C01004020010040240100409C090020EB
:203DC000980900209409002008B5FFF787FFBDE80840FFF7C7BC00BF074B0849084A0020F2
:203DE000186082B01B680193019BD1F808051368C0B202B0184700BF00D1004000D00040B2
:203E0000A009002070B443791E4C1F4E03EB430546F82320655D8DBB90F904308A78002B77
:203E200024DB03F1604303F561435201D2B283F8002390F90430002B07DB144D03F01F0698
:203E400001225B09B24045F8232003680A88C3F8082543790879C97803EB4303E2180125B2
:203E600050709170E554002070BC7047084D03F00F0352011D44D2B22A76DAE7082070BCFE
:203E8000704700BFA4090020A809002000E100E0FCEC00E00368044A01211960437903EB87
:203EA00043030221D1547047A409002010B403680022C3F8002183B0D3F800310268019396
:203EC0000123019CC2F8443311B10268C2F8043303B05DF8044B70472DE9F041274F284E92
:203EE000DFF8A08084B000244FF48035D7F804332B4211D056F824200023E0B262B1C7F80E
:203F00004853C7F8085346F8243056F824300393D8F80030039A98470134032C4FEA4505BF
:203F2000E4D1164BD3F80423D10702D5D3F80021C2B9124BD3F80423920710D5D3F80421A6
:203F40006AB10022C3F80421D3F804210D4B0192019A1B68052004B0BDE8F041184704B089
:203F6000BDE8F0810022C3F80021064AD3F80031029304201368029A9847DAE700B0004081
:203F800040B10040A809002010B5074C236882B03BB1064B1B6898470023236023680193E6
:203FA000019B02B010BD00BF00010140AC09002070B5114B114A1D781160DDB9104E0278C0
:203FC00001211970C6F80C25416804464FF47A720023C803490C08F013FBC6F80405237A78
:203FE000084A5B01DBB282F810334FF480331360284670BD082070BDB41D0020AC090020AA
:204000000000014000E100E0044B054901220220C3F804231A600870704700BF0000014031
:20402000B41D002010B504460020FCF7C1F90E4A1378072B11D80D492370581C1070D1F80F
:204040000805012202FA03F30343C1F8083500240020FCF7B5F9204610BD04240020FCF7AF
:20406000AFF9204610BD00BFB31D002000000140034B044A00F5C07043F82020704700BFC3
:20408000000001403546526E2DE9F0410E4A0F4B16781F88F419802C03DD00242046BDE8AE
:2040A000F081DFF8308032464146054608F032FC074B1B7833443A46A81958FA83F108F03D
:2040C00029FC2046BDE8F081B51D0020A21D0020A41D0020B009002070B4134B134D144A74
:2040E0002C781B781288234452FA83F39BB21A18802A15DC013B1BB2002B0CDB0D4A591CC5
:204100001E1811443244013B11F8016D02F801691BB25E1CF7D120442870012070BC704778
:20412000002070BC704700BFA41D0020B51D0020A21D0020B0090020084A138883420BDB9A
:2041400010B407490C8880B21B1A20440880138001205DF8044B704700207047A21D00209F
:20416000A41D0020014B1880704700BFA21D0020044A054B12781B780448134450FA83F00A
:20418000704700BFA41D0020B51D0020B009002000487047B0090020014B1888704700BFC3
:2041A000A21D00200549064A064B127808781B88104453FA80F080B2704700BFB51D0020D9
:2041C000A41D0020A21D002010B50A4B0A4C0B49002220461A605A609A60DA601A615A6135
:2041E000FEF704F904F108000449BDE81040FEF7FDB800BF481E0020381E002034CF000026
:2042000004480549054A002303800B801370FFF7DBBF00BFA41D0020A21D0020B51D002000
:2042200070B5802982B00B4A0B4D0C4E01900C464FF0000328BF8024137033802B80FFF7F0
:20424000C3FF01990648224608F064FB20462C8002B070BDB51D0020A21D0020A41D002052
:20426000B0090020F0B40C4B0C4A1C685D689F68DE68C6600460456087601C695D69456177
:20428000046154689068D36812680A604C608860F0BCCB60704700BF481E0020381E002009
:2042A00070B40C4B026844688568C668DE601A605C609D60026944695C611A61064B0C68CC
:2042C00048688A68C968D9601C6058609A6070BC704700BF481E0020381E0020024B23F89E
:2042E00010100120704700BF481E0020014B33F810007047481E002008B5044B0C3803EB7F
:20430000C000FEF773F8012008BD00BF381E0020024B0C3803EBC000704700BF381E002037
:2043200001490248FEF768B834CF0000401E002008B5FDF7DDFEBDE80840FDF725BF00BF43
:2043400008B5FCF727F9002000F076FA05F0AEFB02F052FD4FF08052064BD2F8A800D2F890
:20436000A4205A604CF6F4613622D87019809A7008BD00BF2C1E00200148002100F008B9DC
:2043800070020020F8B5FDF7BDFE0546BFF35F8F00F08CF930B1BFF35F8F2846BDE8F84003
:2043A000FDF7B4BE1B4E044602F026FC33785BB1194B1A4F19683470D7E90023411A52187F
:2043C00043F10003C7E9002373781BB9124A01235060737030BF02F00FFC737863B10E4BBD
:2043E0000E4C5968D4E90223411A521843F10003C4E90223002373703378002BCBD1064A2A
:20440000012310603370BFF35F8F2846BDE8F840FDF77CBEF01D0020F81D0020C81D0020E5
:204420000AB90020704708B508461146FCF7FEFD002008BD0FB400B583B004AA054852F8BD
:20444000041B019204F0EAF803B05DF804EB04B0704700BFE80100202DE9F843DFF8A8805A
:20446000D8F80040844205460F4645D0002C36D0234601E0002B32D01B689D42FAD173B3B5
:20448000204EAB7BD6F80090F3B10023AB73002C34D0A54209D0A37B13F0010F20462A464E
:2044A0004FF0870101D000F031F82468002CF0D1AB683BB1BD4205D035600022832105F1AE
:2044C0000C009847D8F80040A5420AD02CB12368AB420CD01C46002CF9D1C6F80090BDE8A4
:2044E000F8832B68C8F80030C6F80090F7E72B682360C6F80090F2E72346C0E7AB68002B07
:20450000D8D1EAE7B00B0020B40B00208368BBB170B504460B4E0220A073346004F10C007E
:204520000D4698470238012804D9832D02D00123A37370BD21462046BDE87040FFF78CBFBD
:20454000704700BFB00B002038B50B4A0B4B146800221A707CB1012501E024685CB1E37B1F
:20456000002BFAD0E581204600228221FFF7CEFF2468002CF3D138BDB40B0020B91D0020AC
:20458000024B1878421C1A70704700BFB71D002070B50E4D2C68844207D00A4634B123469D
:2045A00000E01BB11B689842FBD170BD0028FCD0074E0460012100233468817383818121D1
:2045C0002860FFF7A3FF346070BD00BFB40B0020B00B002030B4074B07480849084A094C04
:2045E0008A251D70002303700B601360237030BC704700BFB71D0020B81D0020B40B00204E
:20460000B00B0020B61D00202DE9F041224D2B78FBB9224E3378C3B12148224C027802EBF2
:20462000420704EB8701013202F01F02013B0270886814F82770D1F80480DBB2337058B1AD
:20464000812F1ED0827BD2071DD428781844BDE8F081FFF779FFDCE7134A14685CB9F4E7E9
:20466000A37B13F0010F20464246394601D0FFF74DFF24685CB12B78002BF1D0FFF764FF08
:20468000EEE70123837342463946FFF73FFF337828781844BDE8F081B91D0020B81D002048
:2046A000B61D0020300A0020B40B0020024A034B10781B7818447047B81D0020B91D00201B
:2046C00070B40D4D2C78202C12D00C4B0C4E1B78234403F01F0303EB430301342C7006EBD4
:2046E0008304C4E9012006F82310002070BC7047012070BC704700BFB81D0020B61D002086
:20470000300A002038B5837B034CDB07256801D5FFF7FCFE256038BDB00B002018B1837BB4
:20472000013B012B00D97047024A01231370C373704700BFB91D0020FCF770BC10B50446BE
:2047400008F018F901462046FCF770FCBDE810400A20FCF763BC00BF08B50448FDF77CFFDC
:20476000BDE808400248FDF777BF00BFFC010020F00100200148FDF7C7BF00BFF001002058
:2047800038B50E48FDF77AFF044678B10C48FDF775FF0546206058B1FFF776FC05F19A016D
:2047A000A5F8800005F18200FFF75CFD204638BD214602482C46FDF77DFFF7E7F001002038
:2047C000FC010020006800F19A018230FFF74ABD10B5014604460748FDF788FF00B910BD73
:2047E00021680548FDF766FF21460248BDE81040FDF760BFF0010020FC01002010B5014697
:2048000004460948FDF772FF00B910BD2468B4F880102046FFF704FD04F19A0104F18200E6
:20482000BDE81040FFF73CBDF001002008B507F00DF880B208BD00BF0F4B012100221960FD
:204840001946C3F80021D1F80031002BFBD0D1F80805094A0023C0B2C1F80031D2F800318A
:20486000002BFBD0D2F80815012340EA012080B2536006F0BDBF00BF00D000400023013A68
:204880000271016043718371704700BF10B4817942790479521A224208D003464A1C006871
:2048A0002240405C9A715DF8044B70474FF0FF30F9E700BF38B505460C4605F0DFFA8DB1F1
:2048C0000F4B2868696803C3ACB121460D4B51F8080F496803C3BDE83840094801220021B2
:2048E00005F0A6BB0346064D59689A680068DB680FC5002CE9D10449014805F0E3FCEAE763
:2049000038110020401100207021002010B5044C237803B110BDFFF7CDFF0123237010BD95
:20492000BA1D002010B51C4C217882B029B31B4B002403F160011A7E1AB193F82A20012A6A
:2049400015D020338B42F6D1204605F0FDFA04B9F8B102F08DF84023024621460020009397
:2049600000F07EFB00F026FA002002B010BD9A7EFE2A08D003F11A04E3E70846FFF79AFF4E
:2049800001232370D3E7DA7E802ADAD003F11A04D7E74FF0FF30E8E7BA1D0020D81F0020DF
:2049A000054B187B30B1B3F84A00DB8AC01AB0FA80F04009704700BF601E00202DE9F0473B
:2049C0001A4CDFF86C809DF82490164607460D4620464FF4B07200219A4607F0C3FFB8F834
:2049E0002030B34205D108994A46504602F090F810B90020BDE8F08701264FF0FF33F021AD
:204A00004FF2F0026773E1732673A364A4F84C30A4F85A20C4F8088028686968AA68EB685D
:204A20001C340FC43046BDE8F08700BF601E002038020020437D012B01D900207047F0B5C8
:204A400090F8512090F8503083B0CDE900320446028A00F13C032146007EFFF7AFFF48B3B0
:204A6000164B226A607D617FE58B5A610022666D1976618B5D83257F83F85E20A77D83F8D5
:204A800056709873207D83F85500E07D1982996883F857201E609D7483F854000B6898473D
:204AA000074801F091FD01F0A7FE01F0D7FE012003B0F0BD002003B0F0BD00BF601E00206E
:204AC000F4CF000008B5FFF76BFF084B08B983F85E009B681B68984701F0BCFB044801F0BF
:204AE00073FDBDE8084001F00FBF00BF601E0020FCCF00000A4B93F9541093F85420002905
:204B000002F10102B4BFD2B202F07F02197B83F85420F022DA7301B97047FFF7D3BF00BF9B
:204B2000601E00202DE9F0414B4DB5F84A4001F0E1FE95F85E30032B5BD0FFF731FF804691
:204B400020B1AB68BDE8F041DB6918476F6C434E01F0A8FB01F05AFB686C01F0D5FA0346D5
:204B60003068A5F84A30FDF7B5FE0446002836D1002F55D0B5F84A30B5F848209A4201D920
:204B8000A5F84830B5F84C304FF6FF7293420AD0B5F84A10914206D0CB1A002BB8BF5B429E
:204BA000B3F5007F3FDC95F85D30002BC9D06B6C002B3ED0002F46D001F036FD002385F8BC
:204BC0005D30AB68BDE8F041DB69184723681BB321463068FDF746FE04460028C8D02046BC
:204BE00001F092FAB5F84A308342EFD8C4F80080EEE7002001F00AFB4FF6FF739C42A5F82C
:204C00004A309ED0164801F0DFFC01F027FEAB68BDE8F041DB691847FBF768FD2060D7E74B
:204C2000B5F84A30ACE70F48A5F84C1001F0CCFCB9E70B4885F85E3001F0C6FC01F05EFCB5
:204C400001F00CFEBAE70123074885F85E3001F0BBFC01F0EFFDAFE7601E00205C02002003
:204C60000CD000001CD0000034D0000030B4084D2B7B53B1044630B11C350FCD20606160EC
:204C8000A260E360012030BC7047184630BC7047601E002010B5FFF783FE134C78B994F913
:204CA0005A2094F85A30002A03F10103B4BFDBB203F07F03002084F85A3001F075F8FDF755
:204CC0006BFB01F0C7FA05F0B7FF01F0F1FD94F841305B0602D40023237310BD034801F03C
:204CE00001FF0023237310BD601E00208C1E0020024B032283F85E2001F006BE601E002008
:204D000008B50F4B1A7B8AB11A6D511C0ED082420DD9101AB0F5967F186507D2586C28B159
:204D200001F0FEF9BDE8084000F0DABE08BD00210322196583F85E20BDE8084001F0E4BD15
:204D4000601E002010B5084C237B5BB194F840200146D20804F11C0007F0CEFDB0FA80F0F8
:204D6000400910BD184610BD601E002008B5FFF717FE18B1BDE80840FFF7BCBE08BD00BFE2
:204D8000024B1B7B03B97047FFF79CBE601E0020074B9A7B187B1AB9003818BF012070471B
:204DA00028B193F85E00012894BF002001207047601E0020024B1B7B03B97047FFF7B2BE63
:204DC000601E00202DE9F041614D2A7B06460C462AB16A7B237E9A4209D0BDE8F081FFF7DB
:204DE000DFFD98B12B7B002BF3D1BDE8F08159481022214607F080FD0028EED1628AEB8AED
:204E00009A4209D2BDE8F041FFF78CBE2046FFF711FE0028E6D1E0E7E17D95F8540001F084
:204E200009FE628A002840D14FF6FF739A4204D095F85930013385F8593095F85410E07D41
:204E400001F0F8FD48B1B5F84A20EB8A9A4257D0FFF7A6FD074600286BD02246012130469B
:204E600000F022FEE8B1304601F00EFA0746002843D090F80680304601F006FA002849D0DC
:204E8000638A8380637E83712B6DABB96B8BAA7BC3EB03135B012B651AB117B16B6C9F423B
:204EA00017D02B7B002B98D0ACE7EB8A9A42F8D1294801F089FBF4E7002FF2D06B6C9F42BB
:204EC000EFD16B8BAA7BC3EB03135B012B65002AE7D0607E414601F0ADFD0028E1D095F9FF
:204EE0000F20EB7B002A03F10103B4BFDBB203F07F03EB7301F098FBD3E74FF0F008BAE712
:204F0000E37D85F85430FFF74BFD0028A5D0FFF7F1FDA2E7304604F0B9FE0028C1D00F4BB4
:204F20000146012218682346FDF768FD0028A7D1B7E701F0BDFC384601F068F92046FFF7B1
:204F400079FD2B7B002B88D0FFF7BCFD85E700BF601E00207C1E002040D000005C020020F2
:204F600011B1084801F030BB10B50A460321044600F09AFD20B12046BDE8104000F0CCBD94
:204F800010BD00BF5CD0000038B591F823300C460546BBB1FF2B1BBF0D4A508B4FF0FF33E0
:204FA00043430A460020294605F0A2FD18B194F92530002B00DB38BD218C2846BDE838401A
:204FC00001F04CBB0A461846294605F077FDEEE7601E002070B5154D0E4695F85B100446C3
:204FE00001F028FD08B185F85B4095F85A30A34200D070BD95F85E30012B76B207D001F09A
:2050000049FB002EF5DA032385F85E3070BD002E02DA01F03FFBF6E70223054885F85E3062
:2050200001F0D2FABDE8704001F034BB601E00206CD0000070B50E461C4605463AB924B1B6
:205040001DB1064BAE801B7B23B9012070BD01F0D5FAF4E7FFF766FD012070BD601E002063
:205060002DE9F047284C82B094F80CC09DF828A00546174699460E46BCF1000F0AD01022E5
:2050800004F11C0007F038FC80B34FF0F008FFF701FE01E04FF0F0083B463146CDE9009A15
:2050A00028460122FFF78AFC184F194884F854800023012140F608421E263C25A1732282A9
:2050C00080214FF0FF32A37484F85530A4F856300223676126766583A4F84A10226584F81B
:2050E0005E3002B0BDE8F04701F06EBA94F9543094F85480002B08F10108B4BF5FFA88F891
:2051000008F07F08C3E700BF601E00200004800078D0000002484FF4B072002107F022BC98
:20512000601E0020144A907918B992F82A10632901D00120704792F82910C1B992F82B307E
:20514000042B15D10D4B187B88B110B45C7B92F82D00A0420ED1B3F84A1082F82D000B0A42
:2051600043EA0123D38501205DF8044B70477047084670470846F7E778210020601E0020CB
:2051800070B5174A0546118816482B2206F0CEF904461548FFF7D6FD08B9002070BD134963
:2051A000002005F045FC10490646002005F040FC14B1A278032A06D00028EED0002EECD0F1
:2051C0004369B342E9D1084C0FCC002148F2FE002880AA60EB606980A980E980012070BD26
:2051E0006821002078210020902100207C1E00202DE9F0432C4B2D48198885B02B2206F074
:2052000095F9044610B18378032B03D0002005B0BDE8F083C278002A41D0437841790679A3
:205220000133DB00DBB2A3EB111306F00F052B443609183BC6F1100193FBF1F30133DBB21A
:205240009A42E3D8194F9B1ADBB201FB03F1C31B01F1080C1033012A18BF354663445B1B5C
:20526000B3F5A06FD2D807F118030FCBE84688E80F0004EB0C06C5F1100905F118003146DE
:205280004A46384407F046FB4A4608EB0501304607F040FBE378013BE3700120B7E70120CF
:2052A00005B0BDE8F08300BF68210020782100204378A3BB2DE9F047425A40F263439A424A
:2052C00000EB010428D11B4D2B7B2BB36A7BE3789A4221D1A67816F020081DD1A388164A26
:2052E0001F0A0C20D2F8009047EA0327FFF710F801464846FDF71CFBA278B5F84A10F609A6
:20530000BFB2C2F380130CD08F420ED242463946BDE8F047FFF78EBE0020BDE8F0870020C6
:2053200070478F4201D33246F1E742F04002A2700122ECE7601E00205C0200202DE9F043E0
:205340002B4E2C4F318883B038460DF10702012306F092F8002842D09DF80730062B3ED0FF
:20536000044607F10609B84614E013B9A378632B16D03188E31BC91A204689B200230DF133
:20538000070206F079F8044648B39DF80730062B814624D0112B22D03A2B20D02B2BE4D112
:2053A000237889F8003065780135ED00684206F02FF8C0B13188283989B2404606F052F84E
:2053C0003288E31B9A420EDDD21A6119204607F0AFFA99F800308DF80730062BDAD1012068
:2053E00003B0BDE8F083002003B0BDE8F08300BF68210020782100202DE9F04FA34E337BE2
:2054000089B05BB3A24C228B48F2FE039A4225D0237EFF2B22D0FFF7C3FA054680B904F1B5
:20542000080004F091FD20B19A4BE2791B799A4219D0FFF777FE0546284609B0BDE8F08F77
:2054400004F11809FFF77AFF4846FFF77BFC28B14946002005F0ECFA804688BB01252846CC
:2054600009B0BDE8F08F8C4F3A88B2F59F6FF6D8283A04F1280104F1300007F059FAB6F892
:205480004A20A179767B84F82950130A43EA022340F26342E385628584F82C5084F8281061
:2054A000A571082084F82D6005F0B2FF3988283989B2204605F0D6FFFFF734FE0546CEE74A
:2054C00006F11C01002005F0B3FA0190002848D04946002005F0CCFA002842D0D8F814108D
:2054E000002900F0C480019B8B4200F0C7806B4BCDF80C809B6902934FF0000B0F270DF191
:20550000100A8846029B414650469847DFF898C139466046D6465246002312F8015B10F870
:20552000016FAE4202D10133102BF6D19F420CDAD8F814800BF10103DBB2B8F1000F15D0AD
:20554000019A424512D09B46DCE700271EF8013B1CF8012F9A4206D10137102FF6D1394676
:20556000E6E700257BE73946FFB2E1E7C1F11006C7F1180A16FB0BAA5FFA8AFB1AF0070A7E
:205580001FBFCAF1080A5FFA8AFAD3445FFA8BFBDDF80C801D465B463F4A02931288D11887
:2055A000B1F5A06FDDDC3E490888283021185844283A2044039107F0BBF903995A460846AA
:2055C000002107F0CFF9A279029B84F828202B22A271B3F1080248BF03F1FF32D210314BD7
:2055E0002E4984F82920ABEB0A024FEA0A1A84F82B5084F82DA0D5180DF1100A8B690293A2
:2056000007EB07120320574484F82A0084F82C204446DDF80480CDF804B0D346BA461F4679
:205620006269904521465846A5EB060508D0B84732465146284607F06DF96469002CEFD1C0
:20564000DA46029BDDF804B02146504698479AE80F0089E80F00584605F0DAFE0E4B0C48FF
:205660001988283989B205F0FDFE0125F7E608230D468A469B460F2701268DE708230025AA
:205680009B46AA460F27012686E700BF601E002078210020D81F0020682100209CD000002D
:2056A000AC1D0020A02100208F21002008B50C4A137B43B10B4B0C491B88527B2C335818D1
:2056C0005B5C9A4203D0BDE8084005F087BEC1788078FFF77FFCBDE8084005F07FBE00BFBD
:2056E000601E0020AC1D0020782100202DE9F0438FB02622002104A807F034F93C4B3D4C99
:205700001E883D4B217B06F12C02D518D25C8DF8322011B1617B914204D005F05FFE0FB052
:20572000BDE8F083354A95F801C017788DF835C008330FCB2C3FE94689E80F00BF1B00234F
:20574000217EEA788DF833101CF0400FCDE90433CDE90633FFB2ADF830202CD10424BC4280
:2057600020DA4FF0000803E001263444BC4219DA2B5D2A19002BF7D05678211D052B06F185
:205780000206294408A820D1D2788DF834200732D2083444CDE90888CDE90A8807F0BAF80E
:2057A000BC42E5DB04A94846FFF7EEFB05F016FE0FB0BDE8F08304F11C001022291D07F0B1
:2057C0009BF80028A9D11424C9E7062BCDD153798DF83330132EC8DDA21DAB18A858596800
:2057E0009A68DB680DF1100CACE80F00BDE700BFAC1D0020601E002078210020682100205B
:205800002DE9F04F9DB0382200210EA807F0AAF8954BDFF860A2B3F80090944A944B0C93CC
:205820000AF1080315780FCB09F12C0B0BEB0A04A44601AF87E80F005CF8080F94F8028035
:2058400094F803E01BF80A302679DCF80410DCF808208DF82C30DCF80C3094F801C08DF846
:205860002BC02C3D4EEA082CADF826C026F07F0E06F0070CA5EB09058DF828E08DF82AC097
:2058800094F805E08DF82DE04FF0010CEDB2C6F3C208ADF824C005AEDFF8DCC18DF82980B9
:2058A00040F6084E182DADF82EE0CDF834C00FC640F2D5801821635C23B905F08FFD1DB02D
:2058C000BDE8F08F6218507802304618AE42F4DC023B062BF1D80FF2080C5CF823F000BFA0
:2058E000035A0000AB59000051590000BB580000BB580000BB580000FD5800002028DCD11A
:20590000631892F809C093F808909378D07A8DF86430103163184FEA0C4C92F80AE092F8DD
:2059200003809A688DF865804CEA096C4CEA000C60585968DB684CEA0E2C0DF1500ECDF83E
:2059400060C0AEE80F00AE4280F289803146B2E71028B2D1214492F807C08B7A91F8069072
:2059600091F8088091F80EE0D17A507A41EA0321D37BADF824104CEA092C40EA082051798D
:20598000ADF834C0ADF8360092F803C01079527B8DF82EC043EA0E23ADF832308DF82F0064
:2059A0008DF830108DF83120CDE7082885DD04EB010C53799CF804E092F802C092F8078069
:2059C0008DF84CC01B0443EA0E6392F806E0D2788DF84D200CF1070243EA0803D21043EA80
:2059E0000E2302F1070E86451293BFF666AFBCF1800F3FF662AF083121440EA806F08AFFDF
:205A0000A1E705287FF759AF137992F803C090788DF86800D90941EA4C018DF86910C3F377
:205A2000011C51798DF86AC003F00F038DF86B308DF86C10002886D0072809D002287FF487
:205A40003CAF9179D3798DF86E108DF86F307AE79179D37943EA0123ADF86E3073E705A98B
:205A60003846FFF7AFF928E7AC1D002068210020001E3C00782100200004800008B5084BC2
:205A80001B7B4BB10748017EA1F1FF01B1FA81F108304909FFF764FABDE8084005F09EBCDD
:205AA000601E002078210020F0B583B00E461746054604F0C5F8044610B1204603B0F0BD39
:205AC0000C20FEF725FC22460146CDE900672846012304F053F80446204603B0F0BD00BF18
:205AE00070B50446FFF766F9084B094D198809482C314B1900225A70944218BF20464A55E8
:205B00000223BDE870409B2104F0D6BDAC1D002078210020C01F00202DE9F04F8BB006464B
:205B2000FFF748F900F01AFF10B1002E00F02C81974B984A1B88984D2C339C18697B995469
:205B400095F85430637000F009FF002868D1B5F84A30E3701B0AA37095F855308F4FEA7B01
:205B600095F856C095F80E806271002B0FCF0CF0070C14BF6FF07F0E4FF0000E4CEAC8076B
:205B80004EEA070727710027A060E16022616361A771E77100F0E2FE002845D12B78002B2C
:205BA00042D06978A878A376CA0142EA0012E87849080243E17602200621072B22772076B9
:205BC000617600F0DA80022B40F0DE80A879EA7963772021A077E27727234FF02908099384
:205BE0002823CDE907384FF02B092A23CDE905394FF02F0A2E23CDE9033A2D222C23CDE9A1
:205C0000013222238B464FF0260C4FF030084FF0250E4FF024094FF0230A0093212725E029
:205C2000FF23A370E37097E71F23099321222023CDE90732232022232727CDE90530262301
:205C4000CDE903374FF0250E2423CDE9013E18211A238B464FF01E0C4FF028084FF01D0E1D
:205C60004FF01C094FF01B0A00931927042060540098AA8AEB8A0E21E1554FF0000727544A
:205C8000297C099F04F80A10687CA97C04F809004FEA122A04F80E1004F80CA0E255079A84
:205CA000A968059F95F840C0180AA054089A287EA3540A8C6B8B4FEA122E04F807E0069FC0
:205CC000E255019A4FF00007A754029AA054039A190AA154049AA354BCF1000F0FD100F04B
:205CE0003DFE18B92E4B002E08BF1E464346304601229B210BB0BDE8F04F04F0DDBCD5F8EF
:205D00003CE095F841A0DFF89C90082504F8085004EB0B05B9E80F0085F812C04FF01E0C0E
:205D200085F811C04FEA1E6C85F814C085F818C0CEF3074C85F815C085F819C00BF12009CB
:205D4000CEF3072C5FFA8EFE85F816C085F81AC085F813A085F817E085F81BE00BF11C0C80
:205D600004EB0905002744F80C700BF1300844F809006960AA60EB60B1E7EB8860771A0AAA
:205D80002021E377A27727E70BB0BDE8F08F00BFAC1D002078210020601E00207C1E0020A9
:205DA000C01F00208C1E00202DE9F041074600F05FFE304C8046606C00F0B2F90646FEF74F
:205DC000F9FF237B002B52D0636C002B4FD0B8F1000F4CD0002E4AD0A37B002B47D0264BDA
:205DE000264A1B88617B94F85AC02C339D18002F99540CBF002380236B70052000231221F7
:205E000080221C342871697185F803C0EA71AB70AB7103CCD8F800C0D8F80420D8F808E040
:205E2000D8F80C80C5F808C0EA604FF0060C14226A76C5F81E00C5F82210C5F81480C5F8F8
:205E400010E0AB76EB762B776F7785F818C056F8083FA4F108007468C5F826300222C5F8F1
:205E60002A402E23BDE8F0419B2104F025BCBDE8F08100BF601E0020AC1D002078210020EB
:205E8000F0B583B00E4615460190FEF793FF0A4B0A4A1B880A490198497B2C339C18995467
:205EA0000027042303229B21A670E570677003B0BDE8F04004F000BCAC1D00207821002097
:205EC000601E002008B5074804F048FB064804F045FB064804F042FBBDE80840044804F0B3
:205EE0003DBB00BF2C020020200200201402002008020020704700BF014B00221A707047D6
:205F0000601E002008B500F017F908B1808808BD4FF6FF7008BD00BFB0B138B504468588C3
:205F200000F00AF968B183884FF6FE722B44934207D8204600F000F948B18088284480B284
:205F400038BD4FF6FF7038BD4FF6FF7070474FF6FF70F3E770B50646FFF7DEFF0B4B0446C6
:205F6000586CFFF7D9FF336804F1BF05044623B9A542B4BF0020012070BDFAF7B7FB33680F
:205F8000C01AB0F5963FF3D9002070BD601E002088B138B5094B0446DD8AFFF7BDFFA288EF
:205FA0004FF6FF7153198B4228BF0B46984238BF184680B238BD4FF6FF707047601E00205C
:205FC00008B500F0B9F828B18088B0F5007F8CBF0020012008BD00BF10B50446FFF79CFFAE
:205FE000034620461C4600F0A7F840B18388B3F5007F05D8B4F5004F8CBF0020012010BDB0
:20600000002010BD70B50E46F0B10446FFF7E4FF0546AEB13046FFF7DFFF88B1DDB1164D38
:206020006B6CA34220D09E4217D02046FFF774FF05463046FFF770FF85420CD2204670BDC0
:20604000002DFBD1002070BD0029FBD00846FFF7C3FF0028F6D0304670BD2046FFF77AFF9A
:206060000028E2D03046F7E73046FFF773FF0028E4D16B6CD7E700BF601E002010B500F090
:206080003BF828B1044B9B68BDE810405B6918474FF6FF7010BD00BF601E002070B504463D
:2060A00008460D46FFF7EAFF06462046FFF7E6FF86428CBF2846204670BD00BF08B50C4BEC
:2060C000D3F82821824204BF0022C3F82821D3F80421824204BF0022C3F80421054B0146EF
:2060E0001868FCF7F9FCBDE8084000F00DBC00BF601E00205C020020024B01461868FCF7B0
:2061000017BC00BF5C02002020B1044B9B685B6903B118474FF6FF70704700BF601E0020AD
:2061200008B5044B01461868FCF73AFDBDE8084003F0A6BD5C02002008B5044B01461868CE
:20614000FCF72EFDBDE80840FCF758B85C0200202DE9F041274C237B82B000274BB3264D91
:2061600080462868FCF7B6FB014610B34FF6FF76A3685B690846B3B101919847B0420199E3
:20618000034610D0E28A82420DD8B4F814C00846BCF1000F11D0B4F848206244B24228BFC1
:2061A0003246934209DD2868FCF75CFB01460028DED1384602B0BDE8F081A3680191DB688E
:2061C000984701990028EED0B8F1000F07D1A368019138469B69984701990746E3E70846D3
:2061E0000191FFF7A9FFFCF70FF801990028EED1D9E700BF601E00205C02002008B5FFF7A6
:206200009BFFBDE80840FBF7FFBF00BF70B50F4D696C814219D00E4E04463068FCF7A4FCB5
:2062200021463068FCF786FC686CFFF779FF03F06FFD03F04FFD2046FFF772FF002103F029
:2062400085FD01236C6485F85D3070BD601E00205C02002038B50B4D0020FFF7D7FF2868B4
:20626000FCF738FB50B104462046FFF727FF21462868FCF7F7FA04460028F5D1BDE83840FB
:20628000FEF798BD5C02002008B503F0D9FC03F0D1FC034B01461868BDE80840FCF748BBF9
:2062A0005C02002038B5FEF77BFBF8B90546FFF74FFF0446D0B1FFF73FFFFBF7A5FF68B912
:2062C0000E4DD5F82831A3B16B6CA34209D00120FFF73EFF38B10446204638BD074BC3F865
:2062E0002851204638BD6B6C002BFAD10024204638BDC5F8284100F087FAE5E7601E00207D
:20630000024B03491868FCF78BBA00BF5C020020BD60000070B5114D114995F8573080243D
:206320009C40A1FB0434A3092B66FEF77FFAE4090C492B6E0C4A04FB00F0A1FB000104EB56
:20634000D1315B1A01242B6605F1A400A5F858400023BDE87040FAF7FBBD00BF601E0020C3
:20636000D34D6210018000805564000010B5FEF75DFA094B094A0146A3FB01C35B0A03EB1D
:206380008303A1EBC31189B2BDE81040044801F5A0710023FAF7DCBDCDCCCCCCF56300005E
:2063A000441F002008B5054BD3F80401FFF7B8FE18B1BDE80840FFF7AFBB08BD601E002058
:2063C00010B50B4C012384F85C30FFF7CFFF94F95A2094F85A30207E0133002AB4BFDBB298
:2063E00003F07F0384F85A30BDE81040FFF7DCBC601E002010B50B4C94F85C30207E0133FB
:2064000084F85C30FFF7D0FC94F85C30042B03D8BDE81040FFF7AABFBDE810400248FEF708
:20642000AFBC00BF601E002084D000000348002290F83C1100F59670FFF722BD601E002090
:20644000024B1B7B03B97047FEF724BC601E0020FEF7B0BC10B5FEF79BFC58B3164C94F8C8
:2064600058306BB9637C217C94F857200B449A42BCBF013284F85720BDE81040FFF74ABF31
:20648000FEF78EFA28B9A37C1BB194F859209A4206D2B4F84A30A4F84C300020FFF73CFB6F
:2064A0000023216E84F85830044A0548BDE81040FAF74EBD10BD00BF601E002055640000B7
:2064C000041F002010B5FEF7B1F9094C094A01460B0AA4FB03434FF4345404FB131189B203
:2064E000BDE81040044801F5B4510023FAF730BD0B5BB005C9670000681F002010B50D4853
:20650000FAF76EFD00B910BDFEF790F90A4B0B4A0146A3FB01C3DB0AC3EB0313A1EB03216F
:2065200089B2BDE81040034801F5F0610023FAF70FBD00BFC811002089888888416500003A
:2065400008B5FEF72DFA50B9094B1A7B42B15A6C32B1B3F84A204FF6FF739A4200D008BD97
:206560000020FFF7BDFABDE80840FFF7C7BF00BF601E002010B5124C237B43B9FFF7BEFF18
:20658000FEF718FCBDE810400E48FAF7EDBC3C20FEF7B6FB3C2004F00FFB237B002BEDD02B
:2065A000636C002BEAD0B4F84A204FF6FF739A42E4D0FEF7FFFBBDE810400248FAF7D4BC1B
:2065C000601E0020E811002010B5FEF7E1FB48B1094C94F8573013B1627C9A4202D200F0CB
:2065E000BDF900B110BD637C84F8590084F85730BDE81040FFF78EBE601E002030B4084DA2
:206600002B7B0BB930BC70470446002305F1C400C5F80441034A30BC1946FAF799BC00BFA7
:20662000601E0020A563000010B50A4C237B0BB1A37B03B910BDFEF7F9F8C0F3080000F502
:206640008071054A04F1E4000023BDE81040FAF77FBC00BF601E0020C163000030B40B4C21
:20666000227B0AB930BC704703460D469A6859680068DB68A4F83C5104F596740FC40023EB
:20668000201D034A30BC1946FAF762BC601E00202D640000114B1A7B12B1197EFF2900D1A3
:2066A000704710B55C8B01FB04F1CC01FEF7BEF80B4BA3FB00231B0BC3EB0313A0EB43201F
:2066C00080B200F5F050844288BF241A2146054A0548BDE810400023FAF73ABC601E002068
:2066E00089888888C1630000441F00202DE9F041334CF9F7FBFF237B002B39D0D4F828510B
:2067000015B12846BDE8F0810746606C18B1FFF775FD002852D0FEF789F800EB800303EBC9
:20672000031303EB032300EB430080B2254E45F25553984230681FD9FCF7CCF80446B8B1A9
:206740004FF6FF7706E021463068FCF78BF804460028D6D02046FFF751FD0028F3D120460F
:20676000FFF7D2FC0DB1B842EDD207462546EAE700252846BDE8F081FCF7ACF804460028A3
:20678000F6D04FF0000806E021463068FCF76AF804460028B5D02046FFF730FD0028F3D146
:2067A0002046FFF7C9FC0028EED0036815B1FA1A4245E9D9A7EB03082546E5E7656CA0E718
:2067C000601E00205C02002038B5FFF78FFF0546FFF7A6FC30B104462846FFF7ADFC2046AB
:2067E000FFF79AF9034B1B7B03B938BDBDE83840FFF768BE601E0020024B1B7B03B970474E
:20680000FFF760BE601E002010B5084C237B03B910BDFEF70BF8064AC0F30801002304F566
:206820008470BDE81040FAF793BB00BF601E0020C967000010B5084C237B03B910BD04F16E
:206840008400FAF7CDFB0028F8D104F18400BDE81040FAF7ABBB00BF601E002010B50A4CCD
:20686000237B03B910BD04F18400FAF7B9FB0028F8D004F18400054ABDE8104000234FF4C0
:206880001641FAF765BB00BF601E00204164000008B5054A054800234FF4F051FAF758FB4A
:2068A000BDE80840FFF72ABE75650000E811002010B50F4C2046FAF779FB04F12000FAF729
:2068C00075FB04F14000FAF771FB04F16000FAF76DFB04F18000FAF769FB04F1A400FAF7B4
:2068E00065FB04F1DC00BDE81040FAF75FBB00BFC41E00200348037B03B970476430FAF7E5
:2069000055BB00BF601E00200448037B03B970470023034A64301946FAF71ABB601E002006
